{
  "contractName": "CoursePlatform",
  "abi": [
    {
      "inputs": [],
      "stateMutability": "nonpayable",
      "type": "constructor"
    },
    {
      "anonymous": false,
      "inputs": [
        {
          "indexed": false,
          "internalType": "uint256",
          "name": "id",
          "type": "uint256"
        },
        {
          "indexed": false,
          "internalType": "string",
          "name": "title",
          "type": "string"
        },
        {
          "indexed": false,
          "internalType": "uint256",
          "name": "price",
          "type": "uint256"
        },
        {
          "indexed": false,
          "internalType": "address",
          "name": "author",
          "type": "address"
        }
      ],
      "name": "CourseCreated",
      "type": "event"
    },
    {
      "anonymous": false,
      "inputs": [
        {
          "indexed": false,
          "internalType": "uint256",
          "name": "courseId",
          "type": "uint256"
        },
        {
          "indexed": false,
          "internalType": "address",
          "name": "buyer",
          "type": "address"
        },
        {
          "indexed": false,
          "internalType": "uint256",
          "name": "price",
          "type": "uint256"
        }
      ],
      "name": "CoursePurchased",
      "type": "event"
    },
    {
      "anonymous": false,
      "inputs": [
        {
          "indexed": false,
          "internalType": "address",
          "name": "admin",
          "type": "address"
        },
        {
          "indexed": false,
          "internalType": "uint256",
          "name": "amount",
          "type": "uint256"
        }
      ],
      "name": "FundsWithdrawn",
      "type": "event"
    },
    {
      "anonymous": false,
      "inputs": [
        {
          "indexed": false,
          "internalType": "uint256",
          "name": "courseId",
          "type": "uint256"
        },
        {
          "indexed": false,
          "internalType": "address",
          "name": "user",
          "type": "address"
        },
        {
          "indexed": false,
          "internalType": "uint8",
          "name": "rating",
          "type": "uint8"
        }
      ],
      "name": "ReviewAdded",
      "type": "event"
    },
    {
      "inputs": [],
      "name": "admin",
      "outputs": [
        {
          "internalType": "address",
          "name": "",
          "type": "address"
        }
      ],
      "stateMutability": "view",
      "type": "function",
      "constant": true
    },
    {
      "inputs": [],
      "name": "courseCount",
      "outputs": [
        {
          "internalType": "uint256",
          "name": "",
          "type": "uint256"
        }
      ],
      "stateMutability": "view",
      "type": "function",
      "constant": true
    },
    {
      "inputs": [
        {
          "internalType": "uint256",
          "name": "",
          "type": "uint256"
        },
        {
          "internalType": "uint256",
          "name": "",
          "type": "uint256"
        }
      ],
      "name": "courseReviews",
      "outputs": [
        {
          "internalType": "address",
          "name": "user",
          "type": "address"
        },
        {
          "internalType": "uint8",
          "name": "rating",
          "type": "uint8"
        },
        {
          "internalType": "string",
          "name": "comment",
          "type": "string"
        }
      ],
      "stateMutability": "view",
      "type": "function",
      "constant": true
    },
    {
      "inputs": [
        {
          "internalType": "uint256",
          "name": "",
          "type": "uint256"
        }
      ],
      "name": "courses",
      "outputs": [
        {
          "internalType": "uint256",
          "name": "id",
          "type": "uint256"
        },
        {
          "internalType": "string",
          "name": "title",
          "type": "string"
        },
        {
          "internalType": "uint256",
          "name": "price",
          "type": "uint256"
        },
        {
          "internalType": "address",
          "name": "author",
          "type": "address"
        },
        {
          "internalType": "string",
          "name": "videoUrl",
          "type": "string"
        },
        {
          "internalType": "string",
          "name": "description",
          "type": "string"
        },
        {
          "internalType": "uint256",
          "name": "totalRating",
          "type": "uint256"
        },
        {
          "internalType": "uint256",
          "name": "reviewCount",
          "type": "uint256"
        }
      ],
      "stateMutability": "view",
      "type": "function",
      "constant": true
    },
    {
      "inputs": [
        {
          "internalType": "address",
          "name": "",
          "type": "address"
        },
        {
          "internalType": "uint256",
          "name": "",
          "type": "uint256"
        }
      ],
      "name": "hasReviewed",
      "outputs": [
        {
          "internalType": "bool",
          "name": "",
          "type": "bool"
        }
      ],
      "stateMutability": "view",
      "type": "function",
      "constant": true
    },
    {
      "inputs": [
        {
          "internalType": "address",
          "name": "",
          "type": "address"
        },
        {
          "internalType": "uint256",
          "name": "",
          "type": "uint256"
        }
      ],
      "name": "ownedCourses",
      "outputs": [
        {
          "internalType": "bool",
          "name": "",
          "type": "bool"
        }
      ],
      "stateMutability": "view",
      "type": "function",
      "constant": true
    },
    {
      "inputs": [
        {
          "internalType": "string",
          "name": "_title",
          "type": "string"
        },
        {
          "internalType": "uint256",
          "name": "_price",
          "type": "uint256"
        },
        {
          "internalType": "string",
          "name": "_videoUrl",
          "type": "string"
        },
        {
          "internalType": "string",
          "name": "_description",
          "type": "string"
        }
      ],
      "name": "createCourse",
      "outputs": [],
      "stateMutability": "nonpayable",
      "type": "function"
    },
    {
      "inputs": [
        {
          "internalType": "uint256",
          "name": "_courseId",
          "type": "uint256"
        }
      ],
      "name": "purchaseCourse",
      "outputs": [],
      "stateMutability": "payable",
      "type": "function",
      "payable": true
    },
    {
      "inputs": [],
      "name": "fetchAllCourses",
      "outputs": [
        {
          "components": [
            {
              "internalType": "uint256",
              "name": "id",
              "type": "uint256"
            },
            {
              "internalType": "string",
              "name": "title",
              "type": "string"
            },
            {
              "internalType": "uint256",
              "name": "price",
              "type": "uint256"
            },
            {
              "internalType": "address",
              "name": "author",
              "type": "address"
            },
            {
              "internalType": "string",
              "name": "videoUrl",
              "type": "string"
            },
            {
              "internalType": "string",
              "name": "description",
              "type": "string"
            },
            {
              "internalType": "uint256",
              "name": "totalRating",
              "type": "uint256"
            },
            {
              "internalType": "uint256",
              "name": "reviewCount",
              "type": "uint256"
            }
          ],
          "internalType": "struct CoursePlatform.Course[]",
          "name": "",
          "type": "tuple[]"
        }
      ],
      "stateMutability": "view",
      "type": "function",
      "constant": true
    },
    {
      "inputs": [
        {
          "internalType": "address",
          "name": "_user",
          "type": "address"
        },
        {
          "internalType": "uint256",
          "name": "_courseId",
          "type": "uint256"
        }
      ],
      "name": "checkOwnership",
      "outputs": [
        {
          "internalType": "bool",
          "name": "",
          "type": "bool"
        }
      ],
      "stateMutability": "view",
      "type": "function",
      "constant": true
    },
    {
      "inputs": [
        {
          "internalType": "uint256",
          "name": "_courseId",
          "type": "uint256"
        }
      ],
      "name": "getCourse",
      "outputs": [
        {
          "components": [
            {
              "internalType": "uint256",
              "name": "id",
              "type": "uint256"
            },
            {
              "internalType": "string",
              "name": "title",
              "type": "string"
            },
            {
              "internalType": "uint256",
              "name": "price",
              "type": "uint256"
            },
            {
              "internalType": "address",
              "name": "author",
              "type": "address"
            },
            {
              "internalType": "string",
              "name": "videoUrl",
              "type": "string"
            },
            {
              "internalType": "string",
              "name": "description",
              "type": "string"
            },
            {
              "internalType": "uint256",
              "name": "totalRating",
              "type": "uint256"
            },
            {
              "internalType": "uint256",
              "name": "reviewCount",
              "type": "uint256"
            }
          ],
          "internalType": "struct CoursePlatform.Course",
          "name": "",
          "type": "tuple"
        }
      ],
      "stateMutability": "view",
      "type": "function",
      "constant": true
    },
    {
      "inputs": [
        {
          "internalType": "uint256",
          "name": "_courseId",
          "type": "uint256"
        },
        {
          "internalType": "uint8",
          "name": "_rating",
          "type": "uint8"
        },
        {
          "internalType": "string",
          "name": "_comment",
          "type": "string"
        }
      ],
      "name": "addReview",
      "outputs": [],
      "stateMutability": "nonpayable",
      "type": "function"
    },
    {
      "inputs": [
        {
          "internalType": "uint256",
          "name": "_courseId",
          "type": "uint256"
        }
      ],
      "name": "getReviews",
      "outputs": [
        {
          "components": [
            {
              "internalType": "address",
              "name": "user",
              "type": "address"
            },
            {
              "internalType": "uint8",
              "name": "rating",
              "type": "uint8"
            },
            {
              "internalType": "string",
              "name": "comment",
              "type": "string"
            }
          ],
          "internalType": "struct CoursePlatform.Review[]",
          "name": "",
          "type": "tuple[]"
        }
      ],
      "stateMutability": "view",
      "type": "function",
      "constant": true
    },
    {
      "inputs": [],
      "name": "withdrawFunds",
      "outputs": [],
      "stateMutability": "nonpayable",
      "type": "function"
    }
  ],
  "bytecode": "0x608060405234801561001057600080fd5b50600080546001600160a01b03191633179055611d5a806100326000396000f3fe6080604052600436106100dd5760003560e01c806396f979d21161007f578063cd13193811610059578063cd1319381461028e578063f7e185e8146102a1578063f851a440146102c3578063fde51142146102fb57600080fd5b806396f979d2146101fe5780639d4a225514610232578063b15d4aa11461025f57600080fd5b8063309578ff116100bb578063309578ff1461014f5780634909f98b1461019a57806366055159146101ba5780638fd649a7146101de57600080fd5b80630b91e28d146100e257806324600fc31461011857806327b420e31461012f575b600080fd5b3480156100ee57600080fd5b506101026100fd366004611646565b610336565b60405161010f9190611736565b60405180910390f35b34801561012457600080fd5b5061012d610590565b005b34801561013b57600080fd5b5061012d61014a3660046117f3565b610683565b34801561015b57600080fd5b5061018a61016a366004611885565b600560209081526000928352604080842090915290825290205460ff1681565b604051901515815260200161010f565b3480156101a657600080fd5b5061012d6101b53660046118bd565b610900565b3480156101c657600080fd5b506101d060015481565b60405190815260200161010f565b3480156101ea57600080fd5b5061018a6101f9366004611885565b610ba5565b34801561020a57600080fd5b5061021e610219366004611646565b610bd3565b60405161010f98979695949392919061191c565b34801561023e57600080fd5b5061025261024d366004611646565b610dba565b60405161010f919061198c565b34801561026b57600080fd5b5061027f61027a366004611a17565b610ee4565b60405161010f93929190611a39565b61012d61029c366004611646565b610fbe565b3480156102ad57600080fd5b506102b661133c565b60405161010f9190611a6f565b3480156102cf57600080fd5b506000546102e3906001600160a01b031681565b6040516001600160a01b03909116815260200161010f565b34801561030757600080fd5b5061018a610316366004611885565b600360209081526000928352604080842090915290825290205460ff1681565b61033e6115f8565b60008211801561035057506001548211155b6103755760405162461bcd60e51b815260040161036c90611ad1565b60405180910390fd5b6002600083815260200190815260200160002060405180610100016040529081600082015481526020016001820180546103ae90611b01565b80601f01602080910402602001604051908101604052809291908181526020018280546103da90611b01565b80156104275780601f106103fc57610100808354040283529160200191610427565b820191906000526020600020905b81548152906001019060200180831161040a57829003601f168201915b50505091835250506002820154602082015260038201546001600160a01b0316604082015260048201805460609092019161046190611b01565b80601f016020809104026020016040519081016040528092919081815260200182805461048d90611b01565b80156104da5780601f106104af576101008083540402835291602001916104da565b820191906000526020600020905b8154815290600101906020018083116104bd57829003601f168201915b505050505081526020016005820180546104f390611b01565b80601f016020809104026020016040519081016040528092919081815260200182805461051f90611b01565b801561056c5780601f106105415761010080835404028352916020019161056c565b820191906000526020600020905b81548152906001019060200180831161054f57829003601f168201915b50505050508152602001600682015481526020016007820154815250509050919050565b6000546001600160a01b031633146105ba5760405162461bcd60e51b815260040161036c90611b35565b47806106005760405162461bcd60e51b815260206004820152601560248201527412da1bdb99c818dbc81cdbc8191d481919481c9d5d605a1b604482015260640161036c565b600080546040516001600160a01b039091169183156108fc02918491818181858888f19350505050158015610639573d6000803e3d6000fd5b50600054604080516001600160a01b039092168252602082018390527feaff4b37086828766ad3268786972c0cd24259d4c87a80f9d3963a3c3d999b0d910160405180910390a150565b6000546001600160a01b031633146106ad5760405162461bcd60e51b815260040161036c90611b35565b600083116106fd5760405162461bcd60e51b815260206004820152601b60248201527f476961206b686f6120686f632070686169206c6f6e20686f6e20300000000000604482015260640161036c565b600084511161075a5760405162461bcd60e51b8152602060048201526024808201527f54696575206465206b686f6120686f63206b686f6e672064756f632064652074604482015263726f6e6760e01b606482015260840161036c565b60008251116107ab5760405162461bcd60e51b815260206004820152601e60248201527f4c696e6b20766964656f206b686f6e672064756f632064652074726f6e670000604482015260640161036c565b600180549060006107bb83611b99565b909155505060408051610100810182526001805480835260208084018981528486018990523360608601526080850188905260a08501879052600060c0860181905260e086018190529283526002909152939020825181559251919291908201906108269082611c01565b506040820151600282015560608201516003820180546001600160a01b0319166001600160a01b039092169190911790556080820151600482019061086b9082611c01565b5060a082015160058201906108809082611c01565b5060c0820151600682015560e090910151600790910155336000818152600360209081526040808320600180548552925291829020805460ff1916821790555490517f4aef92db777bdc6252138a7a07684420ea0a02c4704c896bfe217e76a33d7e65926108f2929188918891611cc1565b60405180910390a150505050565b60008311801561091257506001548311155b61092e5760405162461bcd60e51b815260040161036c90611ad1565b33600090815260036020908152604080832086845290915290205460ff166109a45760405162461bcd60e51b8152602060048201526024808201527f50686169206d7561206b686f6120686f63207472756f63206b68692064616e686044820152632067696160e01b606482015260840161036c565b33600090815260056020908152604080832086845290915290205460ff1615610a0f5760405162461bcd60e51b815260206004820181905260248201527f42616e2064612064616e6820676961206b686f6120686f63206e617920726f69604482015260640161036c565b60018260ff1610158015610a27575060058260ff1611155b610a6c5760405162461bcd60e51b8152602060048201526016602482015275536f2073616f207068616920747520312064656e203560501b604482015260640161036c565b6000838152600460209081526040808320815160608101835233815260ff80881682860190815293820187815283546001818101865594885295909620825160029096020180549451909116600160a01b026001600160a81b03199094166001600160a01b03959095169490941792909217835592519092820190610af19082611c01565b50503360009081526005602090815260408083208784528252808320805460ff1916600117905560029091528120600601805460ff86169350909190610b38908490611cfb565b90915550506000838152600260205260408120600701805491610b5a83611b99565b90915550506040805184815233602082015260ff84168183015290517fcd105d6c08f27f681ab198bd63b5f4b32ce4977facd0909acb589cf2c82668729181900360600190a1505050565b6001600160a01b038216600090815260036020908152604080832084845290915290205460ff165b92915050565b60026020526000908152604090208054600182018054919291610bf590611b01565b80601f0160208091040260200160405190810160405280929190818152602001828054610c2190611b01565b8015610c6e5780601f10610c4357610100808354040283529160200191610c6e565b820191906000526020600020905b815481529060010190602001808311610c5157829003601f168201915b5050505060028301546003840154600485018054949592946001600160a01b03909216935090610c9d90611b01565b80601f0160208091040260200160405190810160405280929190818152602001828054610cc990611b01565b8015610d165780601f10610ceb57610100808354040283529160200191610d16565b820191906000526020600020905b815481529060010190602001808311610cf957829003601f168201915b505050505090806005018054610d2b90611b01565b80601f0160208091040260200160405190810160405280929190818152602001828054610d5790611b01565b8015610da45780601f10610d7957610100808354040283529160200191610da4565b820191906000526020600020905b815481529060010190602001808311610d8757829003601f168201915b5050505050908060060154908060070154905088565b606060046000838152602001908152602001600020805480602002602001604051908101604052809291908181526020016000905b82821015610ed9576000848152602090819020604080516060810182526002860290920180546001600160a01b0381168452600160a01b900460ff169383019390935260018301805492939291840191610e4890611b01565b80601f0160208091040260200160405190810160405280929190818152602001828054610e7490611b01565b8015610ec15780601f10610e9657610100808354040283529160200191610ec1565b820191906000526020600020905b815481529060010190602001808311610ea457829003601f168201915b50505050508152505081526020019060010190610def565b505050509050919050565b60046020528160005260406000208181548110610f0057600080fd5b6000918252602090912060029091020180546001820180546001600160a01b0383169550600160a01b90920460ff16935090610f3b90611b01565b80601f0160208091040260200160405190810160405280929190818152602001828054610f6790611b01565b8015610fb45780601f10610f8957610100808354040283529160200191610fb4565b820191906000526020600020905b815481529060010190602001808311610f9757829003601f168201915b5050505050905083565b6000600260008381526020019081526020016000206040518061010001604052908160008201548152602001600182018054610ff990611b01565b80601f016020809104026020016040519081016040528092919081815260200182805461102590611b01565b80156110725780601f1061104757610100808354040283529160200191611072565b820191906000526020600020905b81548152906001019060200180831161105557829003601f168201915b50505091835250506002820154602082015260038201546001600160a01b031660408201526004820180546060909201916110ac90611b01565b80601f01602080910402602001604051908101604052809291908181526020018280546110d890611b01565b80156111255780601f106110fa57610100808354040283529160200191611125565b820191906000526020600020905b81548152906001019060200180831161110857829003601f168201915b5050505050815260200160058201805461113e90611b01565b80601f016020809104026020016040519081016040528092919081815260200182805461116a90611b01565b80156111b75780601f1061118c576101008083540402835291602001916111b7565b820191906000526020600020905b81548152906001019060200180831161119a57829003601f168201915b50505050508152602001600682015481526020016007820154815250509050600081600001511180156111ed5750600154815111155b6112095760405162461bcd60e51b815260040161036c90611ad1565b33600090815260036020908152604080832085845290915290205460ff16156112745760405162461bcd60e51b815260206004820152601e60248201527f42616e20646120736f20687575206b686f6120686f63206e617920726f690000604482015260640161036c565b80604001513410156112d45760405162461bcd60e51b815260206004820152602360248201527f536f2045544820677569206b686f6e67206475206465206d7561206b686f6120604482015262686f6360e81b606482015260840161036c565b336000818152600360209081526040808320868452825291829020805460ff1916600117905581518581529081019290925234908201527f6d846848ed199e5a5cc3af1d2846d9e5aa7d59c948360982923973138cbc241b9060600160405180910390a15050565b6060600060015467ffffffffffffffff81111561135b5761135b611750565b60405190808252806020026020018201604052801561139457816020015b6113816115f8565b8152602001906001900390816113795790505b50905060005b6001548110156115f257600260006113b3836001611cfb565b815260200190815260200160002060405180610100016040529081600082015481526020016001820180546113e790611b01565b80601f016020809104026020016040519081016040528092919081815260200182805461141390611b01565b80156114605780601f1061143557610100808354040283529160200191611460565b820191906000526020600020905b81548152906001019060200180831161144357829003601f168201915b50505091835250506002820154602082015260038201546001600160a01b0316604082015260048201805460609092019161149a90611b01565b80601f01602080910402602001604051908101604052809291908181526020018280546114c690611b01565b80156115135780601f106114e857610100808354040283529160200191611513565b820191906000526020600020905b8154815290600101906020018083116114f657829003601f168201915b5050505050815260200160058201805461152c90611b01565b80601f016020809104026020016040519081016040528092919081815260200182805461155890611b01565b80156115a55780601f1061157a576101008083540402835291602001916115a5565b820191906000526020600020905b81548152906001019060200180831161158857829003601f168201915b50505050508152602001600682015481526020016007820154815250508282815181106115d4576115d4611d0e565b602002602001018190525080806115ea90611b99565b91505061139a565b50919050565b60405180610100016040528060008152602001606081526020016000815260200160006001600160a01b03168152602001606081526020016060815260200160008152602001600081525090565b60006020828403121561165857600080fd5b5035919050565b6000815180845260005b8181101561168557602081850181015186830182015201611669565b506000602082860101526020601f19601f83011685010191505092915050565b60006101008251845260208301518160208601526116c58286018261165f565b9150506040830151604085015260018060a01b036060840151166060850152608083015184820360808601526116fb828261165f565b91505060a083015184820360a0860152611715828261165f565b91505060c083015160c085015260e083015160e08501528091505092915050565b60208152600061174960208301846116a5565b9392505050565b634e487b7160e01b600052604160045260246000fd5b600082601f83011261177757600080fd5b813567ffffffffffffffff8082111561179257611792611750565b604051601f8301601f19908116603f011681019082821181831017156117ba576117ba611750565b816040528381528660208588010111156117d357600080fd5b836020870160208301376000602085830101528094505050505092915050565b6000806000806080858703121561180957600080fd5b843567ffffffffffffffff8082111561182157600080fd5b61182d88838901611766565b955060208701359450604087013591508082111561184a57600080fd5b61185688838901611766565b9350606087013591508082111561186c57600080fd5b5061187987828801611766565b91505092959194509250565b6000806040838503121561189857600080fd5b82356001600160a01b03811681146118af57600080fd5b946020939093013593505050565b6000806000606084860312156118d257600080fd5b83359250602084013560ff811681146118ea57600080fd5b9150604084013567ffffffffffffffff81111561190657600080fd5b61191286828701611766565b9150509250925092565b60006101008a83528060208401526119368184018b61165f565b604084018a90526001600160a01b038916606085015283810360808501529050611960818861165f565b905082810360a0840152611974818761165f565b60c0840195909552505060e001529695505050505050565b60006020808301818452808551808352604092508286019150828160051b87010184880160005b83811015611a0957888303603f19018552815180516001600160a01b031684528781015160ff168885015286015160608785018190526119f58186018361165f565b9689019694505050908601906001016119b3565b509098975050505050505050565b60008060408385031215611a2a57600080fd5b50508035926020909101359150565b6001600160a01b038416815260ff83166020820152606060408201819052600090611a669083018461165f565b95945050505050565b6000602080830181845280855180835260408601915060408160051b870101925083870160005b82811015611ac457603f19888603018452611ab28583516116a5565b94509285019290850190600101611a96565b5092979650505050505050565b6020808252601690820152754b686f6120686f63206b686f6e6720746f6e2074616960501b604082015260600190565b600181811c90821680611b1557607f821691505b6020821081036115f257634e487b7160e01b600052602260045260246000fd5b6020808252602e908201527f4368692041646d696e206d6f6920636f20717579656e2074687563206869656e60408201526d2063687563206e616e67206e617960901b606082015260800190565b634e487b7160e01b600052601160045260246000fd5b600060018201611bab57611bab611b83565b5060010190565b601f821115611bfc57600081815260208120601f850160051c81016020861015611bd95750805b601f850160051c820191505b81811015611bf857828155600101611be5565b5050505b505050565b815167ffffffffffffffff811115611c1b57611c1b611750565b611c2f81611c298454611b01565b84611bb2565b602080601f831160018114611c645760008415611c4c5750858301515b600019600386901b1c1916600185901b178555611bf8565b600085815260208120601f198616915b82811015611c9357888601518255948401946001909101908401611c74565b5085821015611cb15787850151600019600388901b60f8161c191681555b5050505050600190811b01905550565b848152608060208201526000611cda608083018661165f565b6040830194909452506001600160a01b039190911660609091015292915050565b80820180821115610bcd57610bcd611b83565b634e487b7160e01b600052603260045260246000fdfea2646970667358221220f55299623b6b7277a84141f1400ff5b7cf6931dc5f7b39183f9e5304361550f164736f6c63430008150033",
  "immutableReferences": {},
  "source": "// SPDX-License-Identifier: MIT\npragma solidity ^0.8.0;\n\n/// @title CoursePlatform - Hệ thống mua khóa học Online bằng Blockchain\n/// @notice Contract cho phép Admin tạo khóa học và người dùng mua bằng ETH\n/// @dev Mọi dữ liệu giao dịch và quyền sở hữu được lưu trữ on-chain\n\ncontract CoursePlatform {\n\n    // ============ CẤU TRÚC DỮ LIỆU ============\n\n    /// @notice Cấu trúc lưu trữ thông tin một khóa học\n    struct Course {\n        uint id;           // ID duy nhất của khóa học\n        string title;      // Tên khóa học\n        uint price;        // Giá khóa học (đơn vị: Wei)\n        address author;    // Địa chỉ ví của tác giả/admin tạo khóa học\n        string videoUrl;   // Link video bài giảng (YouTube URL hoặc link trực tiếp)\n        string description;// Mô tả ngắn về khóa học\n        uint totalRating;  // Tổng số sao đánh giá (để tính trung bình)\n        uint reviewCount;  // Tổng số lượt đánh giá\n    }\n\n    /// @notice Cấu trúc lưu một đánh giá (Review)\n    struct Review {\n        address user;      // Người đánh giá\n        uint8 rating;      // Số sao (1-5)\n        string comment;    // Bình luận\n    }\n\n    // ============ BIẾN TRẠNG THÁI ============\n\n    /// @notice Địa chỉ Admin (người deploy contract)\n    address public admin;\n\n    /// @notice Bộ đếm ID khóa học, tự động tăng\n    uint public courseCount;\n\n    /// @notice Mapping lưu trữ danh sách khóa học theo ID\n    /// @dev courses[courseId] => Course\n    mapping(uint => Course) public courses;\n\n    /// @notice Mapping kiểm tra quyền sở hữu khóa học của người dùng\n    /// @dev ownedCourses[địa_chỉ_ví][courseId] => true/false\n    mapping(address => mapping(uint => bool)) public ownedCourses;\n\n    /// @notice Mapping danh sách review của mỗi khóa học\n    mapping(uint => Review[]) public courseReviews;\n\n    /// @notice Mapping kiểm tra user đã đánh giá khóa học chưa\n    mapping(address => mapping(uint => bool)) public hasReviewed;\n\n    // ============ SỰ KIỆN (EVENTS) ============\n\n    /// @notice Phát ra khi một khóa học mới được tạo\n    event CourseCreated(uint id, string title, uint price, address author);\n\n    /// @notice Phát ra khi một người dùng mua khóa học thành công\n    event CoursePurchased(uint courseId, address buyer, uint price);\n\n    /// @notice Phát ra khi có đánh giá mới\n    event ReviewAdded(uint courseId, address user, uint8 rating);\n\n    /// @notice Phát ra khi Admin rút tiền thành công\n    event FundsWithdrawn(address admin, uint amount);\n\n    // ============ MODIFIER ============\n\n    /// @notice Chỉ cho phép Admin thực thi hàm\n    modifier onlyAdmin() {\n        require(msg.sender == admin, \"Chi Admin moi co quyen thuc hien chuc nang nay\");\n        _;\n    }\n\n    // ============ CONSTRUCTOR ============\n\n    /// @notice Khởi tạo contract, gán người deploy làm Admin\n    constructor() {\n        admin = msg.sender; // Người deploy contract tự động trở thành Admin\n    }\n\n    // ============ CÁC HÀM CHÍNH ============\n\n    /// @notice Tạo một khóa học mới (chỉ Admin)\n    /// @param _title Tên khóa học\n    /// @param _price Giá khóa học (đơn vị: Wei)\n    /// @param _videoUrl Link video bài giảng YouTube\n    /// @param _description Mô tả ngắn về khóa học\n    function createCourse(string memory _title, uint _price, string memory _videoUrl, string memory _description) public onlyAdmin {\n        require(_price > 0, \"Gia khoa hoc phai lon hon 0\");\n        require(bytes(_title).length > 0, \"Tieu de khoa hoc khong duoc de trong\");\n        require(bytes(_videoUrl).length > 0, \"Link video khong duoc de trong\");\n\n        courseCount++;\n        courses[courseCount] = Course(courseCount, _title, _price, msg.sender, _videoUrl, _description, 0, 0);\n        \n        // Mặc định Admin sở hữu khóa học vừa tạo\n        ownedCourses[msg.sender][courseCount] = true;\n\n        emit CourseCreated(courseCount, _title, _price, msg.sender);\n    }\n\n    /// @notice Mua một khóa học bằng ETH\n    /// @param _courseId ID của khóa học muốn mua\n    function purchaseCourse(uint _courseId) public payable {\n        // Lấy thông tin khóa học từ storage\n        Course memory _course = courses[_courseId];\n\n        // Kiểm tra khóa học tồn tại (ID hợp lệ)\n        require(_course.id > 0 && _course.id <= courseCount, \"Khoa hoc khong ton tai\");\n\n        // Kiểm tra người dùng chưa sở hữu khóa học này\n        require(!ownedCourses[msg.sender][_courseId], \"Ban da so huu khoa hoc nay roi\");\n\n        // Kiểm tra số ETH gửi kèm phải đủ giá khóa học\n        require(msg.value >= _course.price, \"So ETH gui khong du de mua khoa hoc\");\n\n        // Đánh dấu người dùng đã sở hữu khóa học\n        ownedCourses[msg.sender][_courseId] = true;\n\n        // Tiền ETH sẽ được lưu lại trong Smart Contract để Admin rút sau bằng hàm withdrawFunds()\n\n        // Phát sự kiện thông báo giao dịch thành công\n        emit CoursePurchased(_courseId, msg.sender, msg.value);\n    }\n\n    /// @notice Lấy danh sách tất cả khóa học\n    /// @return Mảng chứa tất cả các struct Course\n    function fetchAllCourses() public view returns (Course[] memory) {\n        // Tạo mảng tạm với kích thước bằng số lượng khóa học\n        Course[] memory allCourses = new Course[](courseCount);\n\n        // Duyệt qua từng khóa học và thêm vào mảng\n        for (uint i = 0; i < courseCount; i++) {\n            allCourses[i] = courses[i + 1]; // ID bắt đầu từ 1\n        }\n\n        return allCourses;\n    }\n\n    /// @notice Kiểm tra người dùng đã sở hữu khóa học hay chưa\n    /// @param _user Địa chỉ ví người dùng cần kiểm tra\n    /// @param _courseId ID khóa học cần kiểm tra\n    /// @return true nếu đã sở hữu, false nếu chưa\n    function checkOwnership(address _user, uint _courseId) public view returns (bool) {\n        return ownedCourses[_user][_courseId];\n    }\n\n    /// @notice Lấy thông tin chi tiết một khóa học\n    /// @param _courseId ID khóa học\n    /// @return Struct Course chứa thông tin khóa học\n    function getCourse(uint _courseId) public view returns (Course memory) {\n        require(_courseId > 0 && _courseId <= courseCount, \"Khoa hoc khong ton tai\");\n        return courses[_courseId];\n    }\n\n    // ============ HÀM MỚI BỔ SUNG (NÂNG CẤP) ============\n\n    /// @notice Đánh giá khóa học\n    /// @param _courseId ID khóa học\n    /// @param _rating Số sao (1-5)\n    /// @param _comment Bình luận\n    function addReview(uint _courseId, uint8 _rating, string memory _comment) public {\n        require(_courseId > 0 && _courseId <= courseCount, \"Khoa hoc khong ton tai\");\n        require(ownedCourses[msg.sender][_courseId], \"Phai mua khoa hoc truoc khi danh gia\");\n        require(!hasReviewed[msg.sender][_courseId], \"Ban da danh gia khoa hoc nay roi\");\n        require(_rating >= 1 && _rating <= 5, \"So sao phai tu 1 den 5\");\n\n        courseReviews[_courseId].push(Review(msg.sender, _rating, _comment));\n        hasReviewed[msg.sender][_courseId] = true;\n        \n        courses[_courseId].totalRating += _rating;\n        courses[_courseId].reviewCount++;\n\n        emit ReviewAdded(_courseId, msg.sender, _rating);\n    }\n\n    /// @notice Lấy danh sách đánh giá của khóa học\n    /// @param _courseId ID khóa học\n    function getReviews(uint _courseId) public view returns (Review[] memory) {\n        return courseReviews[_courseId];\n    }\n\n    /// @notice Rút tiền từ doanh thu bán khóa học (chỉ Admin)\n    function withdrawFunds() public onlyAdmin {\n        uint balance = address(this).balance;\n        require(balance > 0, \"Khong co so du de rut\");\n        \n        payable(admin).transfer(balance);\n        emit FundsWithdrawn(admin, balance);\n    }\n}\n",
  "sourcePath": "D:\\BlockChain\\contracts\\CoursePlatform.sol",
  "compiler": {
    "name": "solc",
    "version": "0.8.21+commit.d9974bed.Emscripten.clang"
  },
  "schemaVersion": "3.4.16",
  "updatedAt": "2026-05-21T14:59:05.262Z",
  "networkType": "ethereum",
  "devdoc": {
    "details": "Mọi dữ liệu giao dịch và quyền sở hữu được lưu trữ on-chain",
    "kind": "dev",
    "methods": {
      "addReview(uint256,uint8,string)": {
        "params": {
          "_comment": "Bình luận",
          "_courseId": "ID khóa học",
          "_rating": "Số sao (1-5)"
        }
      },
      "checkOwnership(address,uint256)": {
        "params": {
          "_courseId": "ID khóa học cần kiểm tra",
          "_user": "Địa chỉ ví người dùng cần kiểm tra"
        },
        "returns": {
          "_0": "true nếu đã sở hữu, false nếu chưa"
        }
      },
      "createCourse(string,uint256,string,string)": {
        "params": {
          "_description": "Mô tả ngắn về khóa học",
          "_price": "Giá khóa học (đơn vị: Wei)",
          "_title": "Tên khóa học",
          "_videoUrl": "Link video bài giảng YouTube"
        }
      },
      "fetchAllCourses()": {
        "returns": {
          "_0": "Mảng chứa tất cả các struct Course"
        }
      },
      "getCourse(uint256)": {
        "params": {
          "_courseId": "ID khóa học"
        },
        "returns": {
          "_0": "Struct Course chứa thông tin khóa học"
        }
      },
      "getReviews(uint256)": {
        "params": {
          "_courseId": "ID khóa học"
        }
      },
      "purchaseCourse(uint256)": {
        "params": {
          "_courseId": "ID của khóa học muốn mua"
        }
      }
    },
    "stateVariables": {
      "courses": {
        "details": "courses[courseId] => Course"
      },
      "ownedCourses": {
        "details": "ownedCourses[địa_chỉ_ví][courseId] => true/false"
      }
    },
    "title": "CoursePlatform - Hệ thống mua khóa học Online bằng Blockchain",
    "version": 1
  },
  "userdoc": {
    "events": {
      "CourseCreated(uint256,string,uint256,address)": {
        "notice": "Phát ra khi một khóa học mới được tạo"
      },
      "CoursePurchased(uint256,address,uint256)": {
        "notice": "Phát ra khi một người dùng mua khóa học thành công"
      },
      "FundsWithdrawn(address,uint256)": {
        "notice": "Phát ra khi Admin rút tiền thành công"
      },
      "ReviewAdded(uint256,address,uint8)": {
        "notice": "Phát ra khi có đánh giá mới"
      }
    },
    "kind": "user",
    "methods": {
      "addReview(uint256,uint8,string)": {
        "notice": "Đánh giá khóa học"
      },
      "admin()": {
        "notice": "Địa chỉ Admin (người deploy contract)"
      },
      "checkOwnership(address,uint256)": {
        "notice": "Kiểm tra người dùng đã sở hữu khóa học hay chưa"
      },
      "constructor": {
        "notice": "Khởi tạo contract, gán người deploy làm Admin"
      },
      "courseCount()": {
        "notice": "Bộ đếm ID khóa học, tự động tăng"
      },
      "courseReviews(uint256,uint256)": {
        "notice": "Mapping danh sách review của mỗi khóa học"
      },
      "courses(uint256)": {
        "notice": "Mapping lưu trữ danh sách khóa học theo ID"
      },
      "createCourse(string,uint256,string,string)": {
        "notice": "Tạo một khóa học mới (chỉ Admin)"
      },
      "fetchAllCourses()": {
        "notice": "Lấy danh sách tất cả khóa học"
      },
      "getCourse(uint256)": {
        "notice": "Lấy thông tin chi tiết một khóa học"
      },
      "getReviews(uint256)": {
        "notice": "Lấy danh sách đánh giá của khóa học"
      },
      "hasReviewed(address,uint256)": {
        "notice": "Mapping kiểm tra user đã đánh giá khóa học chưa"
      },
      "ownedCourses(address,uint256)": {
        "notice": "Mapping kiểm tra quyền sở hữu khóa học của người dùng"
      },
      "purchaseCourse(uint256)": {
        "notice": "Mua một khóa học bằng ETH"
      },
      "withdrawFunds()": {
        "notice": "Rút tiền từ doanh thu bán khóa học (chỉ Admin)"
      }
    },
    "notice": "Contract cho phép Admin tạo khóa học và người dùng mua bằng ETH",
    "version": 1
  }
}