{
  "contractName": "CoursePlatform",
  "abi": [
    {
      "inputs": [],
      "stateMutability": "nonpayable",
      "type": "constructor"
    },
    {
      "anonymous": false,
      "inputs": [
        {
          "indexed": false,
          "internalType": "uint256",
          "name": "id",
          "type": "uint256"
        },
        {
          "indexed": false,
          "internalType": "string",
          "name": "title",
          "type": "string"
        },
        {
          "indexed": false,
          "internalType": "uint256",
          "name": "price",
          "type": "uint256"
        },
        {
          "indexed": false,
          "internalType": "address",
          "name": "author",
          "type": "address"
        }
      ],
      "name": "CourseCreated",
      "type": "event"
    },
    {
      "anonymous": false,
      "inputs": [
        {
          "indexed": false,
          "internalType": "uint256",
          "name": "courseId",
          "type": "uint256"
        },
        {
          "indexed": false,
          "internalType": "address",
          "name": "buyer",
          "type": "address"
        },
        {
          "indexed": false,
          "internalType": "uint256",
          "name": "price",
          "type": "uint256"
        }
      ],
      "name": "CoursePurchased",
      "type": "event"
    },
    {
      "anonymous": false,
      "inputs": [
        {
          "indexed": false,
          "internalType": "address",
          "name": "admin",
          "type": "address"
        },
        {
          "indexed": false,
          "internalType": "uint256",
          "name": "amount",
          "type": "uint256"
        }
      ],
      "name": "FundsWithdrawn",
      "type": "event"
    },
    {
      "anonymous": false,
      "inputs": [
        {
          "indexed": false,
          "internalType": "uint256",
          "name": "courseId",
          "type": "uint256"
        },
        {
          "indexed": false,
          "internalType": "address",
          "name": "user",
          "type": "address"
        },
        {
          "indexed": false,
          "internalType": "uint8",
          "name": "rating",
          "type": "uint8"
        }
      ],
      "name": "ReviewAdded",
      "type": "event"
    },
    {
      "inputs": [],
      "name": "admin",
      "outputs": [
        {
          "internalType": "address",
          "name": "",
          "type": "address"
        }
      ],
      "stateMutability": "view",
      "type": "function",
      "constant": true
    },
    {
      "inputs": [],
      "name": "courseCount",
      "outputs": [
        {
          "internalType": "uint256",
          "name": "",
          "type": "uint256"
        }
      ],
      "stateMutability": "view",
      "type": "function",
      "constant": true
    },
    {
      "inputs": [
        {
          "internalType": "uint256",
          "name": "",
          "type": "uint256"
        },
        {
          "internalType": "uint256",
          "name": "",
          "type": "uint256"
        }
      ],
      "name": "courseReviews",
      "outputs": [
        {
          "internalType": "address",
          "name": "user",
          "type": "address"
        },
        {
          "internalType": "uint8",
          "name": "rating",
          "type": "uint8"
        },
        {
          "internalType": "string",
          "name": "comment",
          "type": "string"
        }
      ],
      "stateMutability": "view",
      "type": "function",
      "constant": true
    },
    {
      "inputs": [
        {
          "internalType": "uint256",
          "name": "",
          "type": "uint256"
        }
      ],
      "name": "courses",
      "outputs": [
        {
          "internalType": "uint256",
          "name": "id",
          "type": "uint256"
        },
        {
          "internalType": "string",
          "name": "title",
          "type": "string"
        },
        {
          "internalType": "uint256",
          "name": "price",
          "type": "uint256"
        },
        {
          "internalType": "address",
          "name": "author",
          "type": "address"
        },
        {
          "internalType": "string",
          "name": "videoUrl",
          "type": "string"
        },
        {
          "internalType": "string",
          "name": "description",
          "type": "string"
        },
        {
          "internalType": "string",
          "name": "imageUrl",
          "type": "string"
        },
        {
          "internalType": "uint256",
          "name": "totalRating",
          "type": "uint256"
        },
        {
          "internalType": "uint256",
          "name": "reviewCount",
          "type": "uint256"
        }
      ],
      "stateMutability": "view",
      "type": "function",
      "constant": true
    },
    {
      "inputs": [
        {
          "internalType": "address",
          "name": "",
          "type": "address"
        },
        {
          "internalType": "uint256",
          "name": "",
          "type": "uint256"
        }
      ],
      "name": "hasReviewed",
      "outputs": [
        {
          "internalType": "bool",
          "name": "",
          "type": "bool"
        }
      ],
      "stateMutability": "view",
      "type": "function",
      "constant": true
    },
    {
      "inputs": [
        {
          "internalType": "address",
          "name": "",
          "type": "address"
        },
        {
          "internalType": "uint256",
          "name": "",
          "type": "uint256"
        }
      ],
      "name": "ownedCourses",
      "outputs": [
        {
          "internalType": "bool",
          "name": "",
          "type": "bool"
        }
      ],
      "stateMutability": "view",
      "type": "function",
      "constant": true
    },
    {
      "inputs": [
        {
          "internalType": "string",
          "name": "_title",
          "type": "string"
        },
        {
          "internalType": "uint256",
          "name": "_price",
          "type": "uint256"
        },
        {
          "internalType": "string",
          "name": "_videoUrl",
          "type": "string"
        },
        {
          "internalType": "string",
          "name": "_description",
          "type": "string"
        },
        {
          "internalType": "string",
          "name": "_imageUrl",
          "type": "string"
        }
      ],
      "name": "createCourse",
      "outputs": [],
      "stateMutability": "nonpayable",
      "type": "function"
    },
    {
      "inputs": [
        {
          "internalType": "uint256",
          "name": "_courseId",
          "type": "uint256"
        },
        {
          "internalType": "string",
          "name": "_title",
          "type": "string"
        },
        {
          "internalType": "uint256",
          "name": "_price",
          "type": "uint256"
        },
        {
          "internalType": "string",
          "name": "_videoUrl",
          "type": "string"
        },
        {
          "internalType": "string",
          "name": "_description",
          "type": "string"
        },
        {
          "internalType": "string",
          "name": "_imageUrl",
          "type": "string"
        }
      ],
      "name": "updateCourse",
      "outputs": [],
      "stateMutability": "nonpayable",
      "type": "function"
    },
    {
      "inputs": [
        {
          "internalType": "uint256",
          "name": "_courseId",
          "type": "uint256"
        }
      ],
      "name": "purchaseCourse",
      "outputs": [],
      "stateMutability": "payable",
      "type": "function",
      "payable": true
    },
    {
      "inputs": [],
      "name": "fetchAllCourses",
      "outputs": [
        {
          "components": [
            {
              "internalType": "uint256",
              "name": "id",
              "type": "uint256"
            },
            {
              "internalType": "string",
              "name": "title",
              "type": "string"
            },
            {
              "internalType": "uint256",
              "name": "price",
              "type": "uint256"
            },
            {
              "internalType": "address",
              "name": "author",
              "type": "address"
            },
            {
              "internalType": "string",
              "name": "videoUrl",
              "type": "string"
            },
            {
              "internalType": "string",
              "name": "description",
              "type": "string"
            },
            {
              "internalType": "string",
              "name": "imageUrl",
              "type": "string"
            },
            {
              "internalType": "uint256",
              "name": "totalRating",
              "type": "uint256"
            },
            {
              "internalType": "uint256",
              "name": "reviewCount",
              "type": "uint256"
            }
          ],
          "internalType": "struct CoursePlatform.Course[]",
          "name": "",
          "type": "tuple[]"
        }
      ],
      "stateMutability": "view",
      "type": "function",
      "constant": true
    },
    {
      "inputs": [
        {
          "internalType": "address",
          "name": "_user",
          "type": "address"
        },
        {
          "internalType": "uint256",
          "name": "_courseId",
          "type": "uint256"
        }
      ],
      "name": "checkOwnership",
      "outputs": [
        {
          "internalType": "bool",
          "name": "",
          "type": "bool"
        }
      ],
      "stateMutability": "view",
      "type": "function",
      "constant": true
    },
    {
      "inputs": [
        {
          "internalType": "uint256",
          "name": "_courseId",
          "type": "uint256"
        }
      ],
      "name": "getCourse",
      "outputs": [
        {
          "components": [
            {
              "internalType": "uint256",
              "name": "id",
              "type": "uint256"
            },
            {
              "internalType": "string",
              "name": "title",
              "type": "string"
            },
            {
              "internalType": "uint256",
              "name": "price",
              "type": "uint256"
            },
            {
              "internalType": "address",
              "name": "author",
              "type": "address"
            },
            {
              "internalType": "string",
              "name": "videoUrl",
              "type": "string"
            },
            {
              "internalType": "string",
              "name": "description",
              "type": "string"
            },
            {
              "internalType": "string",
              "name": "imageUrl",
              "type": "string"
            },
            {
              "internalType": "uint256",
              "name": "totalRating",
              "type": "uint256"
            },
            {
              "internalType": "uint256",
              "name": "reviewCount",
              "type": "uint256"
            }
          ],
          "internalType": "struct CoursePlatform.Course",
          "name": "",
          "type": "tuple"
        }
      ],
      "stateMutability": "view",
      "type": "function",
      "constant": true
    },
    {
      "inputs": [
        {
          "internalType": "uint256",
          "name": "_courseId",
          "type": "uint256"
        },
        {
          "internalType": "uint8",
          "name": "_rating",
          "type": "uint8"
        },
        {
          "internalType": "string",
          "name": "_comment",
          "type": "string"
        }
      ],
      "name": "addReview",
      "outputs": [],
      "stateMutability": "nonpayable",
      "type": "function"
    },
    {
      "inputs": [
        {
          "internalType": "uint256",
          "name": "_courseId",
          "type": "uint256"
        }
      ],
      "name": "getReviews",
      "outputs": [
        {
          "components": [
            {
              "internalType": "address",
              "name": "user",
              "type": "address"
            },
            {
              "internalType": "uint8",
              "name": "rating",
              "type": "uint8"
            },
            {
              "internalType": "string",
              "name": "comment",
              "type": "string"
            }
          ],
          "internalType": "struct CoursePlatform.Review[]",
          "name": "",
          "type": "tuple[]"
        }
      ],
      "stateMutability": "view",
      "type": "function",
      "constant": true
    },
    {
      "inputs": [],
      "name": "withdrawFunds",
      "outputs": [],
      "stateMutability": "nonpayable",
      "type": "function"
    }
  ],
  "bytecode": "0x608060405234801561001057600080fd5b50600080546001600160a01b03191633179055612353806100326000396000f3fe6080604052600436106100e85760003560e01c806396f979d21161008a578063cd13193811610059578063cd131938146102ba578063f7e185e8146102cd578063f851a440146102ef578063fde511421461032757600080fd5b806396f979d2146102095780639d4a22551461023e578063b15d4aa11461026b578063c28802281461029a57600080fd5b806339bae40a116100c657806339bae40a146101855780634909f98b146101a557806366055159146101c55780638fd649a7146101e957600080fd5b80630b91e28d146100ed57806324600fc314610123578063309578ff1461013a575b600080fd5b3480156100f957600080fd5b5061010d610108366004611b22565b610362565b60405161011a9190611c35565b60405180910390f35b34801561012f57600080fd5b5061013861064e565b005b34801561014657600080fd5b50610175610155366004611c4f565b600560209081526000928352604080842090915290825290205460ff1681565b604051901515815260200161011a565b34801561019157600080fd5b506101386101a0366004611d2a565b610741565b3480156101b157600080fd5b506101386101c0366004611de1565b610a2e565b3480156101d157600080fd5b506101db60015481565b60405190815260200161011a565b3480156101f557600080fd5b50610175610204366004611c4f565b610cd3565b34801561021557600080fd5b50610229610224366004611b22565b610d01565b60405161011a99989796959493929190611e40565b34801561024a57600080fd5b5061025e610259366004611b22565b610f76565b60405161011a9190611ec6565b34801561027757600080fd5b5061028b610286366004611f51565b6110a0565b60405161011a93929190611f73565b3480156102a657600080fd5b506101386102b5366004611fa9565b61117a565b6101386102c8366004611b22565b61136f565b3480156102d957600080fd5b506102e261177f565b60405161011a9190612068565b3480156102fb57600080fd5b5060005461030f906001600160a01b031681565b6040516001600160a01b03909116815260200161011a565b34801561033357600080fd5b50610175610342366004611c4f565b600360209081526000928352604080842090915290825290205460ff1681565b61036a611acd565b60008211801561037c57506001548211155b6103a15760405162461bcd60e51b8152600401610398906120ca565b60405180910390fd5b6002600083815260200190815260200160002060405180610120016040529081600082015481526020016001820180546103da906120fa565b80601f0160208091040260200160405190810160405280929190818152602001828054610406906120fa565b80156104535780601f1061042857610100808354040283529160200191610453565b820191906000526020600020905b81548152906001019060200180831161043657829003601f168201915b50505091835250506002820154602082015260038201546001600160a01b0316604082015260048201805460609092019161048d906120fa565b80601f01602080910402602001604051908101604052809291908181526020018280546104b9906120fa565b80156105065780601f106104db57610100808354040283529160200191610506565b820191906000526020600020905b8154815290600101906020018083116104e957829003601f168201915b5050505050815260200160058201805461051f906120fa565b80601f016020809104026020016040519081016040528092919081815260200182805461054b906120fa565b80156105985780601f1061056d57610100808354040283529160200191610598565b820191906000526020600020905b81548152906001019060200180831161057b57829003601f168201915b505050505081526020016006820180546105b1906120fa565b80601f01602080910402602001604051908101604052809291908181526020018280546105dd906120fa565b801561062a5780601f106105ff5761010080835404028352916020019161062a565b820191906000526020600020905b81548152906001019060200180831161060d57829003601f168201915b50505050508152602001600782015481526020016008820154815250509050919050565b6000546001600160a01b031633146106785760405162461bcd60e51b81526004016103989061212e565b47806106be5760405162461bcd60e51b815260206004820152601560248201527412da1bdb99c818dbc81cdbc8191d481919481c9d5d605a1b6044820152606401610398565b600080546040516001600160a01b039091169183156108fc02918491818181858888f193505050501580156106f7573d6000803e3d6000fd5b50600054604080516001600160a01b039092168252602082018390527feaff4b37086828766ad3268786972c0cd24259d4c87a80f9d3963a3c3d999b0d910160405180910390a150565b6000546001600160a01b0316331461076b5760405162461bcd60e51b81526004016103989061212e565b600084116107bb5760405162461bcd60e51b815260206004820152601b60248201527f476961206b686f6120686f632070686169206c6f6e20686f6e203000000000006044820152606401610398565b60008551116108185760405162461bcd60e51b8152602060048201526024808201527f54696575206465206b686f6120686f63206b686f6e672064756f632064652074604482015263726f6e6760e01b6064820152608401610398565b60008351116108695760405162461bcd60e51b815260206004820152601e60248201527f4c696e6b20766964656f206b686f6e672064756f632064652074726f6e6700006044820152606401610398565b60008151116108ba5760405162461bcd60e51b815260206004820152601c60248201527f4c696e6b20616e68206b686f6e672064756f632064652074726f6e67000000006044820152606401610398565b600180549060006108ca83612192565b909155505060408051610120810182526001805480835260208084018a81528486018a90523360608601526080850189905260a0850188905260c08501879052600060e08601819052610100860181905292835260029091529390208251815592519192919082019061093d90826121fa565b506040820151600282015560608201516003820180546001600160a01b0319166001600160a01b039092169190911790556080820151600482019061098290826121fa565b5060a0820151600582019061099790826121fa565b5060c082015160068201906109ac90826121fa565b5060e0820151600782015561010090910151600890910155336000818152600360209081526040808320600180548552925291829020805460ff1916821790555490517f4aef92db777bdc6252138a7a07684420ea0a02c4704c896bfe217e76a33d7e6592610a1f9291899189916122ba565b60405180910390a15050505050565b600083118015610a4057506001548311155b610a5c5760405162461bcd60e51b8152600401610398906120ca565b33600090815260036020908152604080832086845290915290205460ff16610ad25760405162461bcd60e51b8152602060048201526024808201527f50686169206d7561206b686f6120686f63207472756f63206b68692064616e686044820152632067696160e01b6064820152608401610398565b33600090815260056020908152604080832086845290915290205460ff1615610b3d5760405162461bcd60e51b815260206004820181905260248201527f42616e2064612064616e6820676961206b686f6120686f63206e617920726f696044820152606401610398565b60018260ff1610158015610b55575060058260ff1611155b610b9a5760405162461bcd60e51b8152602060048201526016602482015275536f2073616f207068616920747520312064656e203560501b6044820152606401610398565b6000838152600460209081526040808320815160608101835233815260ff80881682860190815293820187815283546001818101865594885295909620825160029096020180549451909116600160a01b026001600160a81b03199094166001600160a01b03959095169490941792909217835592519092820190610c1f90826121fa565b50503360009081526005602090815260408083208784528252808320805460ff1916600117905560029091528120600701805460ff86169350909190610c669084906122f4565b90915550506000838152600260205260408120600801805491610c8883612192565b90915550506040805184815233602082015260ff84168183015290517fcd105d6c08f27f681ab198bd63b5f4b32ce4977facd0909acb589cf2c82668729181900360600190a1505050565b6001600160a01b038216600090815260036020908152604080832084845290915290205460ff165b92915050565b60026020526000908152604090208054600182018054919291610d23906120fa565b80601f0160208091040260200160405190810160405280929190818152602001828054610d4f906120fa565b8015610d9c5780601f10610d7157610100808354040283529160200191610d9c565b820191906000526020600020905b815481529060010190602001808311610d7f57829003601f168201915b5050505060028301546003840154600485018054949592946001600160a01b03909216935090610dcb906120fa565b80601f0160208091040260200160405190810160405280929190818152602001828054610df7906120fa565b8015610e445780601f10610e1957610100808354040283529160200191610e44565b820191906000526020600020905b815481529060010190602001808311610e2757829003601f168201915b505050505090806005018054610e59906120fa565b80601f0160208091040260200160405190810160405280929190818152602001828054610e85906120fa565b8015610ed25780601f10610ea757610100808354040283529160200191610ed2565b820191906000526020600020905b815481529060010190602001808311610eb557829003601f168201915b505050505090806006018054610ee7906120fa565b80601f0160208091040260200160405190810160405280929190818152602001828054610f13906120fa565b8015610f605780601f10610f3557610100808354040283529160200191610f60565b820191906000526020600020905b815481529060010190602001808311610f4357829003601f168201915b5050505050908060070154908060080154905089565b606060046000838152602001908152602001600020805480602002602001604051908101604052809291908181526020016000905b82821015611095576000848152602090819020604080516060810182526002860290920180546001600160a01b0381168452600160a01b900460ff169383019390935260018301805492939291840191611004906120fa565b80601f0160208091040260200160405190810160405280929190818152602001828054611030906120fa565b801561107d5780601f106110525761010080835404028352916020019161107d565b820191906000526020600020905b81548152906001019060200180831161106057829003601f168201915b50505050508152505081526020019060010190610fab565b505050509050919050565b600460205281600052604060002081815481106110bc57600080fd5b6000918252602090912060029091020180546001820180546001600160a01b0383169550600160a01b90920460ff169350906110f7906120fa565b80601f0160208091040260200160405190810160405280929190818152602001828054611123906120fa565b80156111705780601f1061114557610100808354040283529160200191611170565b820191906000526020600020905b81548152906001019060200180831161115357829003601f168201915b5050505050905083565b6000546001600160a01b031633146111a45760405162461bcd60e51b81526004016103989061212e565b6000861180156111b657506001548611155b6111d25760405162461bcd60e51b8152600401610398906120ca565b600084116112225760405162461bcd60e51b815260206004820152601b60248201527f476961206b686f6120686f632070686169206c6f6e20686f6e203000000000006044820152606401610398565b60008551116112735760405162461bcd60e51b815260206004820152601b60248201527f54696575206465206b686f6e672064756f632064652074726f6e6700000000006044820152606401610398565b60008351116112c45760405162461bcd60e51b815260206004820152601e60248201527f4c696e6b20766964656f206b686f6e672064756f632064652074726f6e6700006044820152606401610398565b60008151116113155760405162461bcd60e51b815260206004820152601c60248201527f4c696e6b20616e68206b686f6e672064756f632064652074726f6e67000000006044820152606401610398565b60008681526002602052604090206001810161133187826121fa565b50600281018590556004810161134785826121fa565b506005810161135684826121fa565b506006810161136583826121fa565b5050505050505050565b60006002600083815260200190815260200160002060405180610120016040529081600082015481526020016001820180546113aa906120fa565b80601f01602080910402602001604051908101604052809291908181526020018280546113d6906120fa565b80156114235780601f106113f857610100808354040283529160200191611423565b820191906000526020600020905b81548152906001019060200180831161140657829003601f168201915b50505091835250506002820154602082015260038201546001600160a01b0316604082015260048201805460609092019161145d906120fa565b80601f0160208091040260200160405190810160405280929190818152602001828054611489906120fa565b80156114d65780601f106114ab576101008083540402835291602001916114d6565b820191906000526020600020905b8154815290600101906020018083116114b957829003601f168201915b505050505081526020016005820180546114ef906120fa565b80601f016020809104026020016040519081016040528092919081815260200182805461151b906120fa565b80156115685780601f1061153d57610100808354040283529160200191611568565b820191906000526020600020905b81548152906001019060200180831161154b57829003601f168201915b50505050508152602001600682018054611581906120fa565b80601f01602080910402602001604051908101604052809291908181526020018280546115ad906120fa565b80156115fa5780601f106115cf576101008083540402835291602001916115fa565b820191906000526020600020905b8154815290600101906020018083116115dd57829003601f168201915b50505050508152602001600782015481526020016008820154815250509050600081600001511180156116305750600154815111155b61164c5760405162461bcd60e51b8152600401610398906120ca565b33600090815260036020908152604080832085845290915290205460ff16156116b75760405162461bcd60e51b815260206004820152601e60248201527f42616e20646120736f20687575206b686f6120686f63206e617920726f6900006044820152606401610398565b80604001513410156117175760405162461bcd60e51b815260206004820152602360248201527f536f2045544820677569206b686f6e67206475206465206d7561206b686f6120604482015262686f6360e81b6064820152608401610398565b336000818152600360209081526040808320868452825291829020805460ff1916600117905581518581529081019290925234908201527f6d846848ed199e5a5cc3af1d2846d9e5aa7d59c948360982923973138cbc241b9060600160405180910390a15050565b6060600060015467ffffffffffffffff81111561179e5761179e611c87565b6040519080825280602002602001820160405280156117d757816020015b6117c4611acd565b8152602001906001900390816117bc5790505b50905060005b600154811015611ac757600260006117f68360016122f4565b8152602001908152602001600020604051806101200160405290816000820154815260200160018201805461182a906120fa565b80601f0160208091040260200160405190810160405280929190818152602001828054611856906120fa565b80156118a35780601f10611878576101008083540402835291602001916118a3565b820191906000526020600020905b81548152906001019060200180831161188657829003601f168201915b50505091835250506002820154602082015260038201546001600160a01b031660408201526004820180546060909201916118dd906120fa565b80601f0160208091040260200160405190810160405280929190818152602001828054611909906120fa565b80156119565780601f1061192b57610100808354040283529160200191611956565b820191906000526020600020905b81548152906001019060200180831161193957829003601f168201915b5050505050815260200160058201805461196f906120fa565b80601f016020809104026020016040519081016040528092919081815260200182805461199b906120fa565b80156119e85780601f106119bd576101008083540402835291602001916119e8565b820191906000526020600020905b8154815290600101906020018083116119cb57829003601f168201915b50505050508152602001600682018054611a01906120fa565b80601f0160208091040260200160405190810160405280929190818152602001828054611a2d906120fa565b8015611a7a5780601f10611a4f57610100808354040283529160200191611a7a565b820191906000526020600020905b815481529060010190602001808311611a5d57829003601f168201915b5050505050815260200160078201548152602001600882015481525050828281518110611aa957611aa9612307565b60200260200101819052508080611abf90612192565b9150506117dd565b50919050565b60405180610120016040528060008152602001606081526020016000815260200160006001600160a01b0316815260200160608152602001606081526020016060815260200160008152602001600081525090565b600060208284031215611b3457600080fd5b5035919050565b6000815180845260005b81811015611b6157602081850181015186830182015201611b45565b506000602082860101526020601f19601f83011685010191505092915050565b6000610120825184526020830151816020860152611ba182860182611b3b565b915050604083015160408501526060830151611bc860608601826001600160a01b03169052565b5060808301518482036080860152611be08282611b3b565b91505060a083015184820360a0860152611bfa8282611b3b565b91505060c083015184820360c0860152611c148282611b3b565b60e08581015190870152610100948501519490950193909352509192915050565b602081526000611c486020830184611b81565b9392505050565b60008060408385031215611c6257600080fd5b82356001600160a01b0381168114611c7957600080fd5b946020939093013593505050565b634e487b7160e01b600052604160045260246000fd5b600082601f830112611cae57600080fd5b813567ffffffffffffffff80821115611cc957611cc9611c87565b604051601f8301601f19908116603f01168101908282118183101715611cf157611cf1611c87565b81604052838152866020858801011115611d0a57600080fd5b836020870160208301376000602085830101528094505050505092915050565b600080600080600060a08688031215611d4257600080fd5b853567ffffffffffffffff80821115611d5a57600080fd5b611d6689838a01611c9d565b9650602088013595506040880135915080821115611d8357600080fd5b611d8f89838a01611c9d565b94506060880135915080821115611da557600080fd5b611db189838a01611c9d565b93506080880135915080821115611dc757600080fd5b50611dd488828901611c9d565b9150509295509295909350565b600080600060608486031215611df657600080fd5b83359250602084013560ff81168114611e0e57600080fd5b9150604084013567ffffffffffffffff811115611e2a57600080fd5b611e3686828701611c9d565b9150509250925092565b60006101208b8352806020840152611e5a8184018c611b3b565b604084018b90526001600160a01b038a16606085015283810360808501529050611e848189611b3b565b905082810360a0840152611e988188611b3b565b905082810360c0840152611eac8187611b3b565b60e084019590955250506101000152979650505050505050565b60006020808301818452808551808352604092508286019150828160051b87010184880160005b83811015611f4357888303603f19018552815180516001600160a01b031684528781015160ff16888501528601516060878501819052611f2f81860183611b3b565b968901969450505090860190600101611eed565b509098975050505050505050565b60008060408385031215611f6457600080fd5b50508035926020909101359150565b6001600160a01b038416815260ff83166020820152606060408201819052600090611fa090830184611b3b565b95945050505050565b60008060008060008060c08789031215611fc257600080fd5b86359550602087013567ffffffffffffffff80821115611fe157600080fd5b611fed8a838b01611c9d565b965060408901359550606089013591508082111561200a57600080fd5b6120168a838b01611c9d565b9450608089013591508082111561202c57600080fd5b6120388a838b01611c9d565b935060a089013591508082111561204e57600080fd5b5061205b89828a01611c9d565b9150509295509295509295565b6000602080830181845280855180835260408601915060408160051b870101925083870160005b828110156120bd57603f198886030184526120ab858351611b81565b9450928501929085019060010161208f565b5092979650505050505050565b6020808252601690820152754b686f6120686f63206b686f6e6720746f6e2074616960501b604082015260600190565b600181811c9082168061210e57607f821691505b602082108103611ac757634e487b7160e01b600052602260045260246000fd5b6020808252602e908201527f4368692041646d696e206d6f6920636f20717579656e2074687563206869656e60408201526d2063687563206e616e67206e617960901b606082015260800190565b634e487b7160e01b600052601160045260246000fd5b6000600182016121a4576121a461217c565b5060010190565b601f8211156121f557600081815260208120601f850160051c810160208610156121d25750805b601f850160051c820191505b818110156121f1578281556001016121de565b5050505b505050565b815167ffffffffffffffff81111561221457612214611c87565b6122288161222284546120fa565b846121ab565b602080601f83116001811461225d57600084156122455750858301515b600019600386901b1c1916600185901b1785556121f1565b600085815260208120601f198616915b8281101561228c5788860151825594840194600190910190840161226d565b50858210156122aa5787850151600019600388901b60f8161c191681555b5050505050600190811b01905550565b8481526080602082015260006122d36080830186611b3b565b6040830194909452506001600160a01b039190911660609091015292915050565b80820180821115610cfb57610cfb61217c565b634e487b7160e01b600052603260045260246000fdfea264697066735822122088502e1eda39de621dd5f584309afb2783ce7eae11f4d3f8440eeec4f43392b864736f6c63430008150033",
  "immutableReferences": {},
  "source": "// SPDX-License-Identifier: MIT\npragma solidity ^0.8.0;\n\n/// @title CoursePlatform - Hệ thống mua khóa học Online bằng Blockchain\n/// @notice Contract cho phép Admin tạo khóa học và người dùng mua bằng ETH\n/// @dev Mọi dữ liệu giao dịch và quyền sở hữu được lưu trữ on-chain\n\ncontract CoursePlatform {\n\n    // ============ CẤU TRÚC DỮ LIỆU ============\n\n    /// @notice Cấu trúc lưu trữ thông tin một khóa học\n    struct Course {\n        uint id;           // ID duy nhất của khóa học\n        string title;      // Tên khóa học\n        uint price;        // Giá khóa học (đơn vị: Wei)\n        address author;    // Địa chỉ ví của tác giả/admin tạo khóa học\n        string videoUrl;   // Link video bài giảng (YouTube URL hoặc link trực tiếp)\n        string description;// Mô tả ngắn về khóa học\n        string imageUrl;   // URL hình ảnh thumbnail của khóa học\n        uint totalRating;  // Tổng số sao đánh giá (để tính trung bình)\n        uint reviewCount;  // Tổng số lượt đánh giá\n    }\n\n    /// @notice Cấu trúc lưu một đánh giá (Review)\n    struct Review {\n        address user;      // Người đánh giá\n        uint8 rating;      // Số sao (1-5)\n        string comment;    // Bình luận\n    }\n\n    // ============ BIẾN TRẠNG THÁI ============\n\n    /// @notice Địa chỉ Admin (người deploy contract)\n    address public admin;\n\n    /// @notice Bộ đếm ID khóa học, tự động tăng\n    uint public courseCount;\n\n    /// @notice Mapping lưu trữ danh sách khóa học theo ID\n    /// @dev courses[courseId] => Course\n    mapping(uint => Course) public courses;\n\n    /// @notice Mapping kiểm tra quyền sở hữu khóa học của người dùng\n    /// @dev ownedCourses[địa_chỉ_ví][courseId] => true/false\n    mapping(address => mapping(uint => bool)) public ownedCourses;\n\n    /// @notice Mapping danh sách review của mỗi khóa học\n    mapping(uint => Review[]) public courseReviews;\n\n    /// @notice Mapping kiểm tra user đã đánh giá khóa học chưa\n    mapping(address => mapping(uint => bool)) public hasReviewed;\n\n    // ============ SỰ KIỆN (EVENTS) ============\n\n    /// @notice Phát ra khi một khóa học mới được tạo\n    event CourseCreated(uint id, string title, uint price, address author);\n\n    /// @notice Phát ra khi một người dùng mua khóa học thành công\n    event CoursePurchased(uint courseId, address buyer, uint price);\n\n    /// @notice Phát ra khi có đánh giá mới\n    event ReviewAdded(uint courseId, address user, uint8 rating);\n\n    /// @notice Phát ra khi Admin rút tiền thành công\n    event FundsWithdrawn(address admin, uint amount);\n\n    // ============ MODIFIER ============\n\n    /// @notice Chỉ cho phép Admin thực thi hàm\n    modifier onlyAdmin() {\n        require(msg.sender == admin, \"Chi Admin moi co quyen thuc hien chuc nang nay\");\n        _;\n    }\n\n    // ============ CONSTRUCTOR ============\n\n    /// @notice Khởi tạo contract, gán người deploy làm Admin\n    constructor() {\n        admin = msg.sender; // Người deploy contract tự động trở thành Admin\n    }\n\n    // ============ CÁC HÀM CHÍNH ============\n\n    /// @notice Tạo một khóa học mới (chỉ Admin)\n    /// @param _title Tên khóa học\n    /// @param _price Giá khóa học (đơn vị: Wei)\n    /// @param _videoUrl Link video bài giảng YouTube\n    /// @param _description Mô tả ngắn về khóa học\n    /// @param _imageUrl URL hình ảnh thumbnail\n    function createCourse(string memory _title, uint _price, string memory _videoUrl, string memory _description, string memory _imageUrl) public onlyAdmin {\n        require(_price > 0, \"Gia khoa hoc phai lon hon 0\");\n        require(bytes(_title).length > 0, \"Tieu de khoa hoc khong duoc de trong\");\n        require(bytes(_videoUrl).length > 0, \"Link video khong duoc de trong\");\n        require(bytes(_imageUrl).length > 0, \"Link anh khong duoc de trong\");\n\n        courseCount++;\n        courses[courseCount] = Course(courseCount, _title, _price, msg.sender, _videoUrl, _description, _imageUrl, 0, 0);\n        \n        // Mặc định Admin sở hữu khóa học vừa tạo\n        ownedCourses[msg.sender][courseCount] = true;\n\n        emit CourseCreated(courseCount, _title, _price, msg.sender);\n    }\n\n    /// @notice Cập nhật thông tin khóa học (chỉ Admin)\n    function updateCourse(uint _courseId, string memory _title, uint _price, string memory _videoUrl, string memory _description, string memory _imageUrl) public onlyAdmin {\n        require(_courseId > 0 && _courseId <= courseCount, \"Khoa hoc khong ton tai\");\n        require(_price > 0, \"Gia khoa hoc phai lon hon 0\");\n        require(bytes(_title).length > 0, \"Tieu de khong duoc de trong\");\n        require(bytes(_videoUrl).length > 0, \"Link video khong duoc de trong\");\n        require(bytes(_imageUrl).length > 0, \"Link anh khong duoc de trong\");\n        \n        Course storage c = courses[_courseId];\n        c.title = _title;\n        c.price = _price;\n        c.videoUrl = _videoUrl;\n        c.description = _description;\n        c.imageUrl = _imageUrl;\n    }\n\n    /// @notice Mua một khóa học bằng ETH\n    /// @param _courseId ID của khóa học muốn mua\n    function purchaseCourse(uint _courseId) public payable {\n        // Lấy thông tin khóa học từ storage\n        Course memory _course = courses[_courseId];\n\n        // Kiểm tra khóa học tồn tại (ID hợp lệ)\n        require(_course.id > 0 && _course.id <= courseCount, \"Khoa hoc khong ton tai\");\n\n        // Kiểm tra người dùng chưa sở hữu khóa học này\n        require(!ownedCourses[msg.sender][_courseId], \"Ban da so huu khoa hoc nay roi\");\n\n        // Kiểm tra số ETH gửi kèm phải đủ giá khóa học\n        require(msg.value >= _course.price, \"So ETH gui khong du de mua khoa hoc\");\n\n        // Đánh dấu người dùng đã sở hữu khóa học\n        ownedCourses[msg.sender][_courseId] = true;\n\n        // Tiền ETH sẽ được lưu lại trong Smart Contract để Admin rút sau bằng hàm withdrawFunds()\n\n        // Phát sự kiện thông báo giao dịch thành công\n        emit CoursePurchased(_courseId, msg.sender, msg.value);\n    }\n\n    /// @notice Lấy danh sách tất cả khóa học\n    /// @return Mảng chứa tất cả các struct Course\n    function fetchAllCourses() public view returns (Course[] memory) {\n        // Tạo mảng tạm với kích thước bằng số lượng khóa học\n        Course[] memory allCourses = new Course[](courseCount);\n\n        // Duyệt qua từng khóa học và thêm vào mảng\n        for (uint i = 0; i < courseCount; i++) {\n            allCourses[i] = courses[i + 1]; // ID bắt đầu từ 1\n        }\n\n        return allCourses;\n    }\n\n    /// @notice Kiểm tra người dùng đã sở hữu khóa học hay chưa\n    /// @param _user Địa chỉ ví người dùng cần kiểm tra\n    /// @param _courseId ID khóa học cần kiểm tra\n    /// @return true nếu đã sở hữu, false nếu chưa\n    function checkOwnership(address _user, uint _courseId) public view returns (bool) {\n        return ownedCourses[_user][_courseId];\n    }\n\n    /// @notice Lấy thông tin chi tiết một khóa học\n    /// @param _courseId ID khóa học\n    /// @return Struct Course chứa thông tin khóa học\n    function getCourse(uint _courseId) public view returns (Course memory) {\n        require(_courseId > 0 && _courseId <= courseCount, \"Khoa hoc khong ton tai\");\n        return courses[_courseId];\n    }\n\n    // ============ HÀM MỚI BỔ SUNG (NÂNG CẤP) ============\n\n    /// @notice Đánh giá khóa học\n    /// @param _courseId ID khóa học\n    /// @param _rating Số sao (1-5)\n    /// @param _comment Bình luận\n    function addReview(uint _courseId, uint8 _rating, string memory _comment) public {\n        require(_courseId > 0 && _courseId <= courseCount, \"Khoa hoc khong ton tai\");\n        require(ownedCourses[msg.sender][_courseId], \"Phai mua khoa hoc truoc khi danh gia\");\n        require(!hasReviewed[msg.sender][_courseId], \"Ban da danh gia khoa hoc nay roi\");\n        require(_rating >= 1 && _rating <= 5, \"So sao phai tu 1 den 5\");\n\n        courseReviews[_courseId].push(Review(msg.sender, _rating, _comment));\n        hasReviewed[msg.sender][_courseId] = true;\n        \n        courses[_courseId].totalRating += _rating;\n        courses[_courseId].reviewCount++;\n\n        emit ReviewAdded(_courseId, msg.sender, _rating);\n    }\n\n    /// @notice Lấy danh sách đánh giá của khóa học\n    /// @param _courseId ID khóa học\n    function getReviews(uint _courseId) public view returns (Review[] memory) {\n        return courseReviews[_courseId];\n    }\n\n    /// @notice Rút tiền từ doanh thu bán khóa học (chỉ Admin)\n    function withdrawFunds() public onlyAdmin {\n        uint balance = address(this).balance;\n        require(balance > 0, \"Khong co so du de rut\");\n        \n        payable(admin).transfer(balance);\n        emit FundsWithdrawn(admin, balance);\n    }\n}\n",
  "sourcePath": "D:\\BlockChain\\contracts\\CoursePlatform.sol",
  "compiler": {
    "name": "solc",
    "version": "0.8.21+commit.d9974bed.Emscripten.clang"
  },
  "schemaVersion": "3.4.16",
  "updatedAt": "2026-05-22T03:27:10.627Z",
  "networkType": "ethereum",
  "devdoc": {
    "details": "Mọi dữ liệu giao dịch và quyền sở hữu được lưu trữ on-chain",
    "kind": "dev",
    "methods": {
      "addReview(uint256,uint8,string)": {
        "params": {
          "_comment": "Bình luận",
          "_courseId": "ID khóa học",
          "_rating": "Số sao (1-5)"
        }
      },
      "checkOwnership(address,uint256)": {
        "params": {
          "_courseId": "ID khóa học cần kiểm tra",
          "_user": "Địa chỉ ví người dùng cần kiểm tra"
        },
        "returns": {
          "_0": "true nếu đã sở hữu, false nếu chưa"
        }
      },
      "createCourse(string,uint256,string,string,string)": {
        "params": {
          "_description": "Mô tả ngắn về khóa học",
          "_imageUrl": "URL hình ảnh thumbnail",
          "_price": "Giá khóa học (đơn vị: Wei)",
          "_title": "Tên khóa học",
          "_videoUrl": "Link video bài giảng YouTube"
        }
      },
      "fetchAllCourses()": {
        "returns": {
          "_0": "Mảng chứa tất cả các struct Course"
        }
      },
      "getCourse(uint256)": {
        "params": {
          "_courseId": "ID khóa học"
        },
        "returns": {
          "_0": "Struct Course chứa thông tin khóa học"
        }
      },
      "getReviews(uint256)": {
        "params": {
          "_courseId": "ID khóa học"
        }
      },
      "purchaseCourse(uint256)": {
        "params": {
          "_courseId": "ID của khóa học muốn mua"
        }
      }
    },
    "stateVariables": {
      "courses": {
        "details": "courses[courseId] => Course"
      },
      "ownedCourses": {
        "details": "ownedCourses[địa_chỉ_ví][courseId] => true/false"
      }
    },
    "title": "CoursePlatform - Hệ thống mua khóa học Online bằng Blockchain",
    "version": 1
  },
  "userdoc": {
    "events": {
      "CourseCreated(uint256,string,uint256,address)": {
        "notice": "Phát ra khi một khóa học mới được tạo"
      },
      "CoursePurchased(uint256,address,uint256)": {
        "notice": "Phát ra khi một người dùng mua khóa học thành công"
      },
      "FundsWithdrawn(address,uint256)": {
        "notice": "Phát ra khi Admin rút tiền thành công"
      },
      "ReviewAdded(uint256,address,uint8)": {
        "notice": "Phát ra khi có đánh giá mới"
      }
    },
    "kind": "user",
    "methods": {
      "addReview(uint256,uint8,string)": {
        "notice": "Đánh giá khóa học"
      },
      "admin()": {
        "notice": "Địa chỉ Admin (người deploy contract)"
      },
      "checkOwnership(address,uint256)": {
        "notice": "Kiểm tra người dùng đã sở hữu khóa học hay chưa"
      },
      "constructor": {
        "notice": "Khởi tạo contract, gán người deploy làm Admin"
      },
      "courseCount()": {
        "notice": "Bộ đếm ID khóa học, tự động tăng"
      },
      "courseReviews(uint256,uint256)": {
        "notice": "Mapping danh sách review của mỗi khóa học"
      },
      "courses(uint256)": {
        "notice": "Mapping lưu trữ danh sách khóa học theo ID"
      },
      "createCourse(string,uint256,string,string,string)": {
        "notice": "Tạo một khóa học mới (chỉ Admin)"
      },
      "fetchAllCourses()": {
        "notice": "Lấy danh sách tất cả khóa học"
      },
      "getCourse(uint256)": {
        "notice": "Lấy thông tin chi tiết một khóa học"
      },
      "getReviews(uint256)": {
        "notice": "Lấy danh sách đánh giá của khóa học"
      },
      "hasReviewed(address,uint256)": {
        "notice": "Mapping kiểm tra user đã đánh giá khóa học chưa"
      },
      "ownedCourses(address,uint256)": {
        "notice": "Mapping kiểm tra quyền sở hữu khóa học của người dùng"
      },
      "purchaseCourse(uint256)": {
        "notice": "Mua một khóa học bằng ETH"
      },
      "updateCourse(uint256,string,uint256,string,string,string)": {
        "notice": "Cập nhật thông tin khóa học (chỉ Admin)"
      },
      "withdrawFunds()": {
        "notice": "Rút tiền từ doanh thu bán khóa học (chỉ Admin)"
      }
    },
    "notice": "Contract cho phép Admin tạo khóa học và người dùng mua bằng ETH",
    "version": 1
  }
}