{
  "contractName": "CoursePlatform",
  "abi": [
    {
      "inputs": [],
      "stateMutability": "nonpayable",
      "type": "constructor"
    },
    {
      "anonymous": false,
      "inputs": [
        {
          "indexed": false,
          "internalType": "uint256",
          "name": "id",
          "type": "uint256"
        },
        {
          "indexed": false,
          "internalType": "string",
          "name": "title",
          "type": "string"
        },
        {
          "indexed": false,
          "internalType": "uint256",
          "name": "price",
          "type": "uint256"
        },
        {
          "indexed": false,
          "internalType": "address",
          "name": "author",
          "type": "address"
        }
      ],
      "name": "CourseCreated",
      "type": "event"
    },
    {
      "anonymous": false,
      "inputs": [
        {
          "indexed": false,
          "internalType": "uint256",
          "name": "courseId",
          "type": "uint256"
        },
        {
          "indexed": false,
          "internalType": "address",
          "name": "buyer",
          "type": "address"
        },
        {
          "indexed": false,
          "internalType": "uint256",
          "name": "price",
          "type": "uint256"
        }
      ],
      "name": "CoursePurchased",
      "type": "event"
    },
    {
      "anonymous": false,
      "inputs": [
        {
          "indexed": false,
          "internalType": "address",
          "name": "admin",
          "type": "address"
        },
        {
          "indexed": false,
          "internalType": "uint256",
          "name": "amount",
          "type": "uint256"
        }
      ],
      "name": "FundsWithdrawn",
      "type": "event"
    },
    {
      "anonymous": false,
      "inputs": [
        {
          "indexed": false,
          "internalType": "uint256",
          "name": "courseId",
          "type": "uint256"
        },
        {
          "indexed": false,
          "internalType": "address",
          "name": "user",
          "type": "address"
        },
        {
          "indexed": false,
          "internalType": "uint8",
          "name": "rating",
          "type": "uint8"
        }
      ],
      "name": "ReviewAdded",
      "type": "event"
    },
    {
      "inputs": [],
      "name": "admin",
      "outputs": [
        {
          "internalType": "address",
          "name": "",
          "type": "address"
        }
      ],
      "stateMutability": "view",
      "type": "function",
      "constant": true
    },
    {
      "inputs": [],
      "name": "courseCount",
      "outputs": [
        {
          "internalType": "uint256",
          "name": "",
          "type": "uint256"
        }
      ],
      "stateMutability": "view",
      "type": "function",
      "constant": true
    },
    {
      "inputs": [
        {
          "internalType": "uint256",
          "name": "",
          "type": "uint256"
        },
        {
          "internalType": "uint256",
          "name": "",
          "type": "uint256"
        }
      ],
      "name": "courseReviews",
      "outputs": [
        {
          "internalType": "address",
          "name": "user",
          "type": "address"
        },
        {
          "internalType": "uint8",
          "name": "rating",
          "type": "uint8"
        },
        {
          "internalType": "string",
          "name": "comment",
          "type": "string"
        }
      ],
      "stateMutability": "view",
      "type": "function",
      "constant": true
    },
    {
      "inputs": [
        {
          "internalType": "uint256",
          "name": "",
          "type": "uint256"
        }
      ],
      "name": "courses",
      "outputs": [
        {
          "internalType": "uint256",
          "name": "id",
          "type": "uint256"
        },
        {
          "internalType": "string",
          "name": "title",
          "type": "string"
        },
        {
          "internalType": "uint256",
          "name": "price",
          "type": "uint256"
        },
        {
          "internalType": "address",
          "name": "author",
          "type": "address"
        },
        {
          "internalType": "string",
          "name": "videoUrl",
          "type": "string"
        },
        {
          "internalType": "string",
          "name": "description",
          "type": "string"
        },
        {
          "internalType": "string",
          "name": "imageUrl",
          "type": "string"
        },
        {
          "internalType": "uint256",
          "name": "totalRating",
          "type": "uint256"
        },
        {
          "internalType": "uint256",
          "name": "reviewCount",
          "type": "uint256"
        },
        {
          "internalType": "bool",
          "name": "isActive",
          "type": "bool"
        }
      ],
      "stateMutability": "view",
      "type": "function",
      "constant": true
    },
    {
      "inputs": [
        {
          "internalType": "address",
          "name": "",
          "type": "address"
        },
        {
          "internalType": "uint256",
          "name": "",
          "type": "uint256"
        }
      ],
      "name": "hasReviewed",
      "outputs": [
        {
          "internalType": "bool",
          "name": "",
          "type": "bool"
        }
      ],
      "stateMutability": "view",
      "type": "function",
      "constant": true
    },
    {
      "inputs": [
        {
          "internalType": "address",
          "name": "",
          "type": "address"
        },
        {
          "internalType": "uint256",
          "name": "",
          "type": "uint256"
        }
      ],
      "name": "ownedCourses",
      "outputs": [
        {
          "internalType": "bool",
          "name": "",
          "type": "bool"
        }
      ],
      "stateMutability": "view",
      "type": "function",
      "constant": true
    },
    {
      "inputs": [
        {
          "internalType": "string",
          "name": "_title",
          "type": "string"
        },
        {
          "internalType": "uint256",
          "name": "_price",
          "type": "uint256"
        },
        {
          "internalType": "string",
          "name": "_videoUrl",
          "type": "string"
        },
        {
          "internalType": "string",
          "name": "_description",
          "type": "string"
        },
        {
          "internalType": "string",
          "name": "_imageUrl",
          "type": "string"
        }
      ],
      "name": "createCourse",
      "outputs": [],
      "stateMutability": "nonpayable",
      "type": "function"
    },
    {
      "inputs": [
        {
          "internalType": "uint256",
          "name": "_courseId",
          "type": "uint256"
        },
        {
          "internalType": "string",
          "name": "_title",
          "type": "string"
        },
        {
          "internalType": "uint256",
          "name": "_price",
          "type": "uint256"
        },
        {
          "internalType": "string",
          "name": "_videoUrl",
          "type": "string"
        },
        {
          "internalType": "string",
          "name": "_description",
          "type": "string"
        },
        {
          "internalType": "string",
          "name": "_imageUrl",
          "type": "string"
        }
      ],
      "name": "updateCourse",
      "outputs": [],
      "stateMutability": "nonpayable",
      "type": "function"
    },
    {
      "inputs": [
        {
          "internalType": "uint256",
          "name": "_courseId",
          "type": "uint256"
        }
      ],
      "name": "toggleCourseStatus",
      "outputs": [],
      "stateMutability": "nonpayable",
      "type": "function"
    },
    {
      "inputs": [
        {
          "internalType": "uint256",
          "name": "_courseId",
          "type": "uint256"
        }
      ],
      "name": "purchaseCourse",
      "outputs": [],
      "stateMutability": "payable",
      "type": "function",
      "payable": true
    },
    {
      "inputs": [],
      "name": "fetchAllCourses",
      "outputs": [
        {
          "components": [
            {
              "internalType": "uint256",
              "name": "id",
              "type": "uint256"
            },
            {
              "internalType": "string",
              "name": "title",
              "type": "string"
            },
            {
              "internalType": "uint256",
              "name": "price",
              "type": "uint256"
            },
            {
              "internalType": "address",
              "name": "author",
              "type": "address"
            },
            {
              "internalType": "string",
              "name": "videoUrl",
              "type": "string"
            },
            {
              "internalType": "string",
              "name": "description",
              "type": "string"
            },
            {
              "internalType": "string",
              "name": "imageUrl",
              "type": "string"
            },
            {
              "internalType": "uint256",
              "name": "totalRating",
              "type": "uint256"
            },
            {
              "internalType": "uint256",
              "name": "reviewCount",
              "type": "uint256"
            },
            {
              "internalType": "bool",
              "name": "isActive",
              "type": "bool"
            }
          ],
          "internalType": "struct CoursePlatform.Course[]",
          "name": "",
          "type": "tuple[]"
        }
      ],
      "stateMutability": "view",
      "type": "function",
      "constant": true
    },
    {
      "inputs": [
        {
          "internalType": "address",
          "name": "_user",
          "type": "address"
        },
        {
          "internalType": "uint256",
          "name": "_courseId",
          "type": "uint256"
        }
      ],
      "name": "checkOwnership",
      "outputs": [
        {
          "internalType": "bool",
          "name": "",
          "type": "bool"
        }
      ],
      "stateMutability": "view",
      "type": "function",
      "constant": true
    },
    {
      "inputs": [
        {
          "internalType": "uint256",
          "name": "_courseId",
          "type": "uint256"
        }
      ],
      "name": "getCourse",
      "outputs": [
        {
          "components": [
            {
              "internalType": "uint256",
              "name": "id",
              "type": "uint256"
            },
            {
              "internalType": "string",
              "name": "title",
              "type": "string"
            },
            {
              "internalType": "uint256",
              "name": "price",
              "type": "uint256"
            },
            {
              "internalType": "address",
              "name": "author",
              "type": "address"
            },
            {
              "internalType": "string",
              "name": "videoUrl",
              "type": "string"
            },
            {
              "internalType": "string",
              "name": "description",
              "type": "string"
            },
            {
              "internalType": "string",
              "name": "imageUrl",
              "type": "string"
            },
            {
              "internalType": "uint256",
              "name": "totalRating",
              "type": "uint256"
            },
            {
              "internalType": "uint256",
              "name": "reviewCount",
              "type": "uint256"
            },
            {
              "internalType": "bool",
              "name": "isActive",
              "type": "bool"
            }
          ],
          "internalType": "struct CoursePlatform.Course",
          "name": "",
          "type": "tuple"
        }
      ],
      "stateMutability": "view",
      "type": "function",
      "constant": true
    },
    {
      "inputs": [
        {
          "internalType": "uint256",
          "name": "_courseId",
          "type": "uint256"
        },
        {
          "internalType": "uint8",
          "name": "_rating",
          "type": "uint8"
        },
        {
          "internalType": "string",
          "name": "_comment",
          "type": "string"
        }
      ],
      "name": "addReview",
      "outputs": [],
      "stateMutability": "nonpayable",
      "type": "function"
    },
    {
      "inputs": [
        {
          "internalType": "uint256",
          "name": "_courseId",
          "type": "uint256"
        }
      ],
      "name": "getReviews",
      "outputs": [
        {
          "components": [
            {
              "internalType": "address",
              "name": "user",
              "type": "address"
            },
            {
              "internalType": "uint8",
              "name": "rating",
              "type": "uint8"
            },
            {
              "internalType": "string",
              "name": "comment",
              "type": "string"
            }
          ],
          "internalType": "struct CoursePlatform.Review[]",
          "name": "",
          "type": "tuple[]"
        }
      ],
      "stateMutability": "view",
      "type": "function",
      "constant": true
    },
    {
      "inputs": [],
      "name": "withdrawFunds",
      "outputs": [],
      "stateMutability": "nonpayable",
      "type": "function"
    }
  ],
  "bytecode": "0x608060405234801561001057600080fd5b50600080546001600160a01b031916331790556124d3806100326000396000f3fe6080604052600436106100f35760003560e01c806396f979d21161008a578063cd13193811610059578063cd131938146102e6578063f7e185e8146102f9578063f851a4401461031b578063fde511421461035357600080fd5b806396f979d2146102345780639d4a22551461026a578063b15d4aa114610297578063c2880228146102c657600080fd5b806339bae40a116100c657806339bae40a146101b05780634909f98b146101d057806366055159146101f05780638fd649a71461021457600080fd5b80630b91e28d146100f85780630bfc52661461012e57806324600fc314610150578063309578ff14610165575b600080fd5b34801561010457600080fd5b50610118610113366004611c7f565b61038e565b6040516101259190611da8565b60405180910390f35b34801561013a57600080fd5b5061014e610149366004611c7f565b610689565b005b34801561015c57600080fd5b5061014e610704565b34801561017157600080fd5b506101a0610180366004611dc2565b600560209081526000928352604080842090915290825290205460ff1681565b6040519015158152602001610125565b3480156101bc57600080fd5b5061014e6101cb366004611e9d565b6107f7565b3480156101dc57600080fd5b5061014e6101eb366004611f54565b610b06565b3480156101fc57600080fd5b5061020660015481565b604051908152602001610125565b34801561022057600080fd5b506101a061022f366004611dc2565b610dab565b34801561024057600080fd5b5061025461024f366004611c7f565b610dd9565b6040516101259a99989796959493929190611fb3565b34801561027657600080fd5b5061028a610285366004611c7f565b611059565b6040516101259190612046565b3480156102a357600080fd5b506102b76102b23660046120d1565b611183565b604051610125939291906120f3565b3480156102d257600080fd5b5061014e6102e1366004612129565b61125d565b61014e6102f4366004611c7f565b611452565b34801561030557600080fd5b5061030e6118c1565b60405161012591906121e8565b34801561032757600080fd5b5060005461033b906001600160a01b031681565b6040516001600160a01b039091168152602001610125565b34801561035f57600080fd5b506101a061036e366004611dc2565b600360209081526000928352604080842090915290825290205460ff1681565b610396611c21565b6000821180156103a857506001548211155b6103cd5760405162461bcd60e51b81526004016103c49061224a565b60405180910390fd5b6002600083815260200190815260200160002060405180610140016040529081600082015481526020016001820180546104069061227a565b80601f01602080910402602001604051908101604052809291908181526020018280546104329061227a565b801561047f5780601f106104545761010080835404028352916020019161047f565b820191906000526020600020905b81548152906001019060200180831161046257829003601f168201915b50505091835250506002820154602082015260038201546001600160a01b031660408201526004820180546060909201916104b99061227a565b80601f01602080910402602001604051908101604052809291908181526020018280546104e59061227a565b80156105325780601f1061050757610100808354040283529160200191610532565b820191906000526020600020905b81548152906001019060200180831161051557829003601f168201915b5050505050815260200160058201805461054b9061227a565b80601f01602080910402602001604051908101604052809291908181526020018280546105779061227a565b80156105c45780601f10610599576101008083540402835291602001916105c4565b820191906000526020600020905b8154815290600101906020018083116105a757829003601f168201915b505050505081526020016006820180546105dd9061227a565b80601f01602080910402602001604051908101604052809291908181526020018280546106099061227a565b80156106565780601f1061062b57610100808354040283529160200191610656565b820191906000526020600020905b81548152906001019060200180831161063957829003601f168201915b5050509183525050600782015460208201526008820154604082015260099091015460ff16151560609091015292915050565b6000546001600160a01b031633146106b35760405162461bcd60e51b81526004016103c4906122ae565b6000811180156106c557506001548111155b6106e15760405162461bcd60e51b81526004016103c49061224a565b6000908152600260205260409020600901805460ff19811660ff90911615179055565b6000546001600160a01b0316331461072e5760405162461bcd60e51b81526004016103c4906122ae565b47806107745760405162461bcd60e51b815260206004820152601560248201527412da1bdb99c818dbc81cdbc8191d481919481c9d5d605a1b60448201526064016103c4565b600080546040516001600160a01b039091169183156108fc02918491818181858888f193505050501580156107ad573d6000803e3d6000fd5b50600054604080516001600160a01b039092168252602082018390527feaff4b37086828766ad3268786972c0cd24259d4c87a80f9d3963a3c3d999b0d910160405180910390a150565b6000546001600160a01b031633146108215760405162461bcd60e51b81526004016103c4906122ae565b600084116108715760405162461bcd60e51b815260206004820152601b60248201527f476961206b686f6120686f632070686169206c6f6e20686f6e2030000000000060448201526064016103c4565b60008551116108ce5760405162461bcd60e51b8152602060048201526024808201527f54696575206465206b686f6120686f63206b686f6e672064756f632064652074604482015263726f6e6760e01b60648201526084016103c4565b600083511161091f5760405162461bcd60e51b815260206004820152601e60248201527f4c696e6b20766964656f206b686f6e672064756f632064652074726f6e67000060448201526064016103c4565b60008151116109705760405162461bcd60e51b815260206004820152601c60248201527f4c696e6b20616e68206b686f6e672064756f632064652074726f6e670000000060448201526064016103c4565b6001805490600061098083612312565b909155505060408051610140810182526001805480835260208084018a81528486018a90523360608601526080850189905260a0850188905260c08501879052600060e08601819052610100860181905261012086018590529283526002909152939020825181559251919291908201906109fb908261237a565b506040820151600282015560608201516003820180546001600160a01b0319166001600160a01b0390921691909117905560808201516004820190610a40908261237a565b5060a08201516005820190610a55908261237a565b5060c08201516006820190610a6a908261237a565b5060e082015160078201556101008201516008820155610120909101516009909101805491151560ff1992831617905533600081815260036020908152604080832060018054855292529182902080549094168117909355915491517f4aef92db777bdc6252138a7a07684420ea0a02c4704c896bfe217e76a33d7e6592610af79290918991899161243a565b60405180910390a15050505050565b600083118015610b1857506001548311155b610b345760405162461bcd60e51b81526004016103c49061224a565b33600090815260036020908152604080832086845290915290205460ff16610baa5760405162461bcd60e51b8152602060048201526024808201527f50686169206d7561206b686f6120686f63207472756f63206b68692064616e686044820152632067696160e01b60648201526084016103c4565b33600090815260056020908152604080832086845290915290205460ff1615610c155760405162461bcd60e51b815260206004820181905260248201527f42616e2064612064616e6820676961206b686f6120686f63206e617920726f6960448201526064016103c4565b60018260ff1610158015610c2d575060058260ff1611155b610c725760405162461bcd60e51b8152602060048201526016602482015275536f2073616f207068616920747520312064656e203560501b60448201526064016103c4565b6000838152600460209081526040808320815160608101835233815260ff80881682860190815293820187815283546001818101865594885295909620825160029096020180549451909116600160a01b026001600160a81b03199094166001600160a01b03959095169490941792909217835592519092820190610cf7908261237a565b50503360009081526005602090815260408083208784528252808320805460ff1916600117905560029091528120600701805460ff86169350909190610d3e908490612474565b90915550506000838152600260205260408120600801805491610d6083612312565b90915550506040805184815233602082015260ff84168183015290517fcd105d6c08f27f681ab198bd63b5f4b32ce4977facd0909acb589cf2c82668729181900360600190a1505050565b6001600160a01b038216600090815260036020908152604080832084845290915290205460ff165b92915050565b60026020526000908152604090208054600182018054919291610dfb9061227a565b80601f0160208091040260200160405190810160405280929190818152602001828054610e279061227a565b8015610e745780601f10610e4957610100808354040283529160200191610e74565b820191906000526020600020905b815481529060010190602001808311610e5757829003601f168201915b5050505060028301546003840154600485018054949592946001600160a01b03909216935090610ea39061227a565b80601f0160208091040260200160405190810160405280929190818152602001828054610ecf9061227a565b8015610f1c5780601f10610ef157610100808354040283529160200191610f1c565b820191906000526020600020905b815481529060010190602001808311610eff57829003601f168201915b505050505090806005018054610f319061227a565b80601f0160208091040260200160405190810160405280929190818152602001828054610f5d9061227a565b8015610faa5780601f10610f7f57610100808354040283529160200191610faa565b820191906000526020600020905b815481529060010190602001808311610f8d57829003601f168201915b505050505090806006018054610fbf9061227a565b80601f0160208091040260200160405190810160405280929190818152602001828054610feb9061227a565b80156110385780601f1061100d57610100808354040283529160200191611038565b820191906000526020600020905b81548152906001019060200180831161101b57829003601f168201915b50505050600783015460088401546009909401549293909290915060ff168a565b606060046000838152602001908152602001600020805480602002602001604051908101604052809291908181526020016000905b82821015611178576000848152602090819020604080516060810182526002860290920180546001600160a01b0381168452600160a01b900460ff1693830193909352600183018054929392918401916110e79061227a565b80601f01602080910402602001604051908101604052809291908181526020018280546111139061227a565b80156111605780601f1061113557610100808354040283529160200191611160565b820191906000526020600020905b81548152906001019060200180831161114357829003601f168201915b5050505050815250508152602001906001019061108e565b505050509050919050565b6004602052816000526040600020818154811061119f57600080fd5b6000918252602090912060029091020180546001820180546001600160a01b0383169550600160a01b90920460ff169350906111da9061227a565b80601f01602080910402602001604051908101604052809291908181526020018280546112069061227a565b80156112535780601f1061122857610100808354040283529160200191611253565b820191906000526020600020905b81548152906001019060200180831161123657829003601f168201915b5050505050905083565b6000546001600160a01b031633146112875760405162461bcd60e51b81526004016103c4906122ae565b60008611801561129957506001548611155b6112b55760405162461bcd60e51b81526004016103c49061224a565b600084116113055760405162461bcd60e51b815260206004820152601b60248201527f476961206b686f6120686f632070686169206c6f6e20686f6e2030000000000060448201526064016103c4565b60008551116113565760405162461bcd60e51b815260206004820152601b60248201527f54696575206465206b686f6e672064756f632064652074726f6e67000000000060448201526064016103c4565b60008351116113a75760405162461bcd60e51b815260206004820152601e60248201527f4c696e6b20766964656f206b686f6e672064756f632064652074726f6e67000060448201526064016103c4565b60008151116113f85760405162461bcd60e51b815260206004820152601c60248201527f4c696e6b20616e68206b686f6e672064756f632064652074726f6e670000000060448201526064016103c4565b600086815260026020526040902060018101611414878261237a565b50600281018590556004810161142a858261237a565b5060058101611439848261237a565b5060068101611448838261237a565b5050505050505050565b600060026000838152602001908152602001600020604051806101400160405290816000820154815260200160018201805461148d9061227a565b80601f01602080910402602001604051908101604052809291908181526020018280546114b99061227a565b80156115065780601f106114db57610100808354040283529160200191611506565b820191906000526020600020905b8154815290600101906020018083116114e957829003601f168201915b50505091835250506002820154602082015260038201546001600160a01b031660408201526004820180546060909201916115409061227a565b80601f016020809104026020016040519081016040528092919081815260200182805461156c9061227a565b80156115b95780601f1061158e576101008083540402835291602001916115b9565b820191906000526020600020905b81548152906001019060200180831161159c57829003601f168201915b505050505081526020016005820180546115d29061227a565b80601f01602080910402602001604051908101604052809291908181526020018280546115fe9061227a565b801561164b5780601f106116205761010080835404028352916020019161164b565b820191906000526020600020905b81548152906001019060200180831161162e57829003601f168201915b505050505081526020016006820180546116649061227a565b80601f01602080910402602001604051908101604052809291908181526020018280546116909061227a565b80156116dd5780601f106116b2576101008083540402835291602001916116dd565b820191906000526020600020905b8154815290600101906020018083116116c057829003601f168201915b5050509183525050600782015460208201526008820154604082015260099091015460ff1615156060909101528051909150158015906117205750600154815111155b61173c5760405162461bcd60e51b81526004016103c49061224a565b80610120015161178e5760405162461bcd60e51b815260206004820152601960248201527f4b686f6120686f63206e6179206461206e67756e672062616e0000000000000060448201526064016103c4565b33600090815260036020908152604080832085845290915290205460ff16156117f95760405162461bcd60e51b815260206004820152601e60248201527f42616e20646120736f20687575206b686f6120686f63206e617920726f69000060448201526064016103c4565b80604001513410156118595760405162461bcd60e51b815260206004820152602360248201527f536f2045544820677569206b686f6e67206475206465206d7561206b686f6120604482015262686f6360e81b60648201526084016103c4565b336000818152600360209081526040808320868452825291829020805460ff1916600117905581518581529081019290925234908201527f6d846848ed199e5a5cc3af1d2846d9e5aa7d59c948360982923973138cbc241b9060600160405180910390a15050565b6060600060015467ffffffffffffffff8111156118e0576118e0611dfa565b60405190808252806020026020018201604052801561191957816020015b611906611c21565b8152602001906001900390816118fe5790505b50905060005b600154811015611c1b5760026000611938836001612474565b8152602001908152602001600020604051806101400160405290816000820154815260200160018201805461196c9061227a565b80601f01602080910402602001604051908101604052809291908181526020018280546119989061227a565b80156119e55780601f106119ba576101008083540402835291602001916119e5565b820191906000526020600020905b8154815290600101906020018083116119c857829003601f168201915b50505091835250506002820154602082015260038201546001600160a01b03166040820152600482018054606090920191611a1f9061227a565b80601f0160208091040260200160405190810160405280929190818152602001828054611a4b9061227a565b8015611a985780601f10611a6d57610100808354040283529160200191611a98565b820191906000526020600020905b815481529060010190602001808311611a7b57829003601f168201915b50505050508152602001600582018054611ab19061227a565b80601f0160208091040260200160405190810160405280929190818152602001828054611add9061227a565b8015611b2a5780601f10611aff57610100808354040283529160200191611b2a565b820191906000526020600020905b815481529060010190602001808311611b0d57829003601f168201915b50505050508152602001600682018054611b439061227a565b80601f0160208091040260200160405190810160405280929190818152602001828054611b6f9061227a565b8015611bbc5780601f10611b9157610100808354040283529160200191611bbc565b820191906000526020600020905b815481529060010190602001808311611b9f57829003601f168201915b5050509183525050600782015460208201526008820154604082015260099091015460ff1615156060909101528251839083908110611bfd57611bfd612487565b60200260200101819052508080611c1390612312565b91505061191f565b50919050565b60405180610140016040528060008152602001606081526020016000815260200160006001600160a01b0316815260200160608152602001606081526020016060815260200160008152602001600081526020016000151581525090565b600060208284031215611c9157600080fd5b5035919050565b6000815180845260005b81811015611cbe57602081850181015186830182015201611ca2565b506000602082860101526020601f19601f83011685010191505092915050565b6000610140825184526020830151816020860152611cfe82860182611c98565b915050604083015160408501526060830151611d2560608601826001600160a01b03169052565b5060808301518482036080860152611d3d8282611c98565b91505060a083015184820360a0860152611d578282611c98565b91505060c083015184820360c0860152611d718282611c98565b91505060e083015160e085015261010080840151818601525061012080840151611d9e8287018215159052565b5090949350505050565b602081526000611dbb6020830184611cde565b9392505050565b60008060408385031215611dd557600080fd5b82356001600160a01b0381168114611dec57600080fd5b946020939093013593505050565b634e487b7160e01b600052604160045260246000fd5b600082601f830112611e2157600080fd5b813567ffffffffffffffff80821115611e3c57611e3c611dfa565b604051601f8301601f19908116603f01168101908282118183101715611e6457611e64611dfa565b81604052838152866020858801011115611e7d57600080fd5b836020870160208301376000602085830101528094505050505092915050565b600080600080600060a08688031215611eb557600080fd5b853567ffffffffffffffff80821115611ecd57600080fd5b611ed989838a01611e10565b9650602088013595506040880135915080821115611ef657600080fd5b611f0289838a01611e10565b94506060880135915080821115611f1857600080fd5b611f2489838a01611e10565b93506080880135915080821115611f3a57600080fd5b50611f4788828901611e10565b9150509295509295909350565b600080600060608486031215611f6957600080fd5b83359250602084013560ff81168114611f8157600080fd5b9150604084013567ffffffffffffffff811115611f9d57600080fd5b611fa986828701611e10565b9150509250925092565b60006101408c8352806020840152611fcd8184018d611c98565b604084018c90526001600160a01b038b16606085015283810360808501529050611ff7818a611c98565b905082810360a084015261200b8189611c98565b905082810360c084015261201f8188611c98565b60e08401969096525050610100810192909252151561012090910152979650505050505050565b60006020808301818452808551808352604092508286019150828160051b87010184880160005b838110156120c357888303603f19018552815180516001600160a01b031684528781015160ff168885015286015160608785018190526120af81860183611c98565b96890196945050509086019060010161206d565b509098975050505050505050565b600080604083850312156120e457600080fd5b50508035926020909101359150565b6001600160a01b038416815260ff8316602082015260606040820181905260009061212090830184611c98565b95945050505050565b60008060008060008060c0878903121561214257600080fd5b86359550602087013567ffffffffffffffff8082111561216157600080fd5b61216d8a838b01611e10565b965060408901359550606089013591508082111561218a57600080fd5b6121968a838b01611e10565b945060808901359150808211156121ac57600080fd5b6121b88a838b01611e10565b935060a08901359150808211156121ce57600080fd5b506121db89828a01611e10565b9150509295509295509295565b6000602080830181845280855180835260408601915060408160051b870101925083870160005b8281101561223d57603f1988860301845261222b858351611cde565b9450928501929085019060010161220f565b5092979650505050505050565b6020808252601690820152754b686f6120686f63206b686f6e6720746f6e2074616960501b604082015260600190565b600181811c9082168061228e57607f821691505b602082108103611c1b57634e487b7160e01b600052602260045260246000fd5b6020808252602e908201527f4368692041646d696e206d6f6920636f20717579656e2074687563206869656e60408201526d2063687563206e616e67206e617960901b606082015260800190565b634e487b7160e01b600052601160045260246000fd5b600060018201612324576123246122fc565b5060010190565b601f82111561237557600081815260208120601f850160051c810160208610156123525750805b601f850160051c820191505b818110156123715782815560010161235e565b5050505b505050565b815167ffffffffffffffff81111561239457612394611dfa565b6123a8816123a2845461227a565b8461232b565b602080601f8311600181146123dd57600084156123c55750858301515b600019600386901b1c1916600185901b178555612371565b600085815260208120601f198616915b8281101561240c578886015182559484019460019091019084016123ed565b508582101561242a5787850151600019600388901b60f8161c191681555b5050505050600190811b01905550565b8481526080602082015260006124536080830186611c98565b6040830194909452506001600160a01b039190911660609091015292915050565b80820180821115610dd357610dd36122fc565b634e487b7160e01b600052603260045260246000fdfea2646970667358221220f23a921fb3de42f85c73cc328aef816b67756f04ae51f0dc0f2b762a74251f7164736f6c63430008150033",
  "immutableReferences": {},
  "source": "// SPDX-License-Identifier: MIT\npragma solidity ^0.8.0;\n\n/// @title CoursePlatform - Hệ thống mua khóa học Online bằng Blockchain\n/// @notice Contract cho phép Admin tạo khóa học và người dùng mua bằng ETH\n/// @dev Mọi dữ liệu giao dịch và quyền sở hữu được lưu trữ on-chain\n\ncontract CoursePlatform {\n\n    // ============ CẤU TRÚC DỮ LIỆU ============\n\n    /// @notice Cấu trúc lưu trữ thông tin một khóa học\n    struct Course {\n        uint id;           // ID duy nhất của khóa học\n        string title;      // Tên khóa học\n        uint price;        // Giá khóa học (đơn vị: Wei)\n        address author;    // Địa chỉ ví của tác giả/admin tạo khóa học\n        string videoUrl;   // Link video bài giảng (YouTube URL hoặc link trực tiếp)\n        string description;// Mô tả ngắn về khóa học\n        string imageUrl;   // URL hình ảnh thumbnail của khóa học\n        uint totalRating;  // Tổng số sao đánh giá (để tính trung bình)\n        uint reviewCount;  // Tổng số lượt đánh giá\n        bool isActive;     // Trạng thái (true = đang bán, false = đã ẩn)\n    }\n\n    /// @notice Cấu trúc lưu một đánh giá (Review)\n    struct Review {\n        address user;      // Người đánh giá\n        uint8 rating;      // Số sao (1-5)\n        string comment;    // Bình luận\n    }\n\n    // ============ BIẾN TRẠNG THÁI ============\n\n    /// @notice Địa chỉ Admin (người deploy contract)\n    address public admin;\n\n    /// @notice Bộ đếm ID khóa học, tự động tăng\n    uint public courseCount;\n\n    /// @notice Mapping lưu trữ danh sách khóa học theo ID\n    /// @dev courses[courseId] => Course\n    mapping(uint => Course) public courses;\n\n    /// @notice Mapping kiểm tra quyền sở hữu khóa học của người dùng\n    /// @dev ownedCourses[địa_chỉ_ví][courseId] => true/false\n    mapping(address => mapping(uint => bool)) public ownedCourses;\n\n    /// @notice Mapping danh sách review của mỗi khóa học\n    mapping(uint => Review[]) public courseReviews;\n\n    /// @notice Mapping kiểm tra user đã đánh giá khóa học chưa\n    mapping(address => mapping(uint => bool)) public hasReviewed;\n\n    // ============ SỰ KIỆN (EVENTS) ============\n\n    /// @notice Phát ra khi một khóa học mới được tạo\n    event CourseCreated(uint id, string title, uint price, address author);\n\n    /// @notice Phát ra khi một người dùng mua khóa học thành công\n    event CoursePurchased(uint courseId, address buyer, uint price);\n\n    /// @notice Phát ra khi có đánh giá mới\n    event ReviewAdded(uint courseId, address user, uint8 rating);\n\n    /// @notice Phát ra khi Admin rút tiền thành công\n    event FundsWithdrawn(address admin, uint amount);\n\n    // ============ MODIFIER ============\n\n    /// @notice Chỉ cho phép Admin thực thi hàm\n    modifier onlyAdmin() {\n        require(msg.sender == admin, \"Chi Admin moi co quyen thuc hien chuc nang nay\");\n        _;\n    }\n\n    // ============ CONSTRUCTOR ============\n\n    /// @notice Khởi tạo contract, gán người deploy làm Admin\n    constructor() {\n        admin = msg.sender; // Người deploy contract tự động trở thành Admin\n    }\n\n    // ============ CÁC HÀM CHÍNH ============\n\n    /// @notice Tạo một khóa học mới (chỉ Admin)\n    /// @param _title Tên khóa học\n    /// @param _price Giá khóa học (đơn vị: Wei)\n    /// @param _videoUrl Link video bài giảng YouTube\n    /// @param _description Mô tả ngắn về khóa học\n    /// @param _imageUrl URL hình ảnh thumbnail\n    function createCourse(string memory _title, uint _price, string memory _videoUrl, string memory _description, string memory _imageUrl) public onlyAdmin {\n        require(_price > 0, \"Gia khoa hoc phai lon hon 0\");\n        require(bytes(_title).length > 0, \"Tieu de khoa hoc khong duoc de trong\");\n        require(bytes(_videoUrl).length > 0, \"Link video khong duoc de trong\");\n        require(bytes(_imageUrl).length > 0, \"Link anh khong duoc de trong\");\n\n        courseCount++;\n        courses[courseCount] = Course(courseCount, _title, _price, msg.sender, _videoUrl, _description, _imageUrl, 0, 0, true);\n        \n        // Mặc định Admin sở hữu khóa học vừa tạo\n        ownedCourses[msg.sender][courseCount] = true;\n\n        emit CourseCreated(courseCount, _title, _price, msg.sender);\n    }\n\n    /// @notice Cập nhật thông tin khóa học (chỉ Admin)\n    function updateCourse(uint _courseId, string memory _title, uint _price, string memory _videoUrl, string memory _description, string memory _imageUrl) public onlyAdmin {\n        require(_courseId > 0 && _courseId <= courseCount, \"Khoa hoc khong ton tai\");\n        require(_price > 0, \"Gia khoa hoc phai lon hon 0\");\n        require(bytes(_title).length > 0, \"Tieu de khong duoc de trong\");\n        require(bytes(_videoUrl).length > 0, \"Link video khong duoc de trong\");\n        require(bytes(_imageUrl).length > 0, \"Link anh khong duoc de trong\");\n        \n        Course storage c = courses[_courseId];\n        c.title = _title;\n        c.price = _price;\n        c.videoUrl = _videoUrl;\n        c.description = _description;\n        c.imageUrl = _imageUrl;\n    }\n\n    /// @notice Thay đổi trạng thái Ẩn/Hiện của khóa học (chỉ Admin)\n    function toggleCourseStatus(uint _courseId) public onlyAdmin {\n        require(_courseId > 0 && _courseId <= courseCount, \"Khoa hoc khong ton tai\");\n        courses[_courseId].isActive = !courses[_courseId].isActive;\n    }\n\n    /// @notice Mua một khóa học bằng ETH\n    /// @param _courseId ID của khóa học muốn mua\n    function purchaseCourse(uint _courseId) public payable {\n        // Lấy thông tin khóa học từ storage\n        Course memory _course = courses[_courseId];\n\n        // Kiểm tra khóa học tồn tại (ID hợp lệ)\n        require(_course.id > 0 && _course.id <= courseCount, \"Khoa hoc khong ton tai\");\n\n        // Kiểm tra khóa học còn đang mở bán\n        require(_course.isActive, \"Khoa hoc nay da ngung ban\");\n\n        // Kiểm tra người dùng chưa sở hữu khóa học này\n        require(!ownedCourses[msg.sender][_courseId], \"Ban da so huu khoa hoc nay roi\");\n\n        // Kiểm tra số ETH gửi kèm phải đủ giá khóa học\n        require(msg.value >= _course.price, \"So ETH gui khong du de mua khoa hoc\");\n\n        // Đánh dấu người dùng đã sở hữu khóa học\n        ownedCourses[msg.sender][_courseId] = true;\n\n        // Tiền ETH sẽ được lưu lại trong Smart Contract để Admin rút sau bằng hàm withdrawFunds()\n\n        // Phát sự kiện thông báo giao dịch thành công\n        emit CoursePurchased(_courseId, msg.sender, msg.value);\n    }\n\n    /// @notice Lấy danh sách tất cả khóa học\n    /// @return Mảng chứa tất cả các struct Course\n    function fetchAllCourses() public view returns (Course[] memory) {\n        // Tạo mảng tạm với kích thước bằng số lượng khóa học\n        Course[] memory allCourses = new Course[](courseCount);\n\n        // Duyệt qua từng khóa học và thêm vào mảng\n        for (uint i = 0; i < courseCount; i++) {\n            allCourses[i] = courses[i + 1]; // ID bắt đầu từ 1\n        }\n\n        return allCourses;\n    }\n\n    /// @notice Kiểm tra người dùng đã sở hữu khóa học hay chưa\n    /// @param _user Địa chỉ ví người dùng cần kiểm tra\n    /// @param _courseId ID khóa học cần kiểm tra\n    /// @return true nếu đã sở hữu, false nếu chưa\n    function checkOwnership(address _user, uint _courseId) public view returns (bool) {\n        return ownedCourses[_user][_courseId];\n    }\n\n    /// @notice Lấy thông tin chi tiết một khóa học\n    /// @param _courseId ID khóa học\n    /// @return Struct Course chứa thông tin khóa học\n    function getCourse(uint _courseId) public view returns (Course memory) {\n        require(_courseId > 0 && _courseId <= courseCount, \"Khoa hoc khong ton tai\");\n        return courses[_courseId];\n    }\n\n    // ============ HÀM MỚI BỔ SUNG (NÂNG CẤP) ============\n\n    /// @notice Đánh giá khóa học\n    /// @param _courseId ID khóa học\n    /// @param _rating Số sao (1-5)\n    /// @param _comment Bình luận\n    function addReview(uint _courseId, uint8 _rating, string memory _comment) public {\n        require(_courseId > 0 && _courseId <= courseCount, \"Khoa hoc khong ton tai\");\n        require(ownedCourses[msg.sender][_courseId], \"Phai mua khoa hoc truoc khi danh gia\");\n        require(!hasReviewed[msg.sender][_courseId], \"Ban da danh gia khoa hoc nay roi\");\n        require(_rating >= 1 && _rating <= 5, \"So sao phai tu 1 den 5\");\n\n        courseReviews[_courseId].push(Review(msg.sender, _rating, _comment));\n        hasReviewed[msg.sender][_courseId] = true;\n        \n        courses[_courseId].totalRating += _rating;\n        courses[_courseId].reviewCount++;\n\n        emit ReviewAdded(_courseId, msg.sender, _rating);\n    }\n\n    /// @notice Lấy danh sách đánh giá của khóa học\n    /// @param _courseId ID khóa học\n    function getReviews(uint _courseId) public view returns (Review[] memory) {\n        return courseReviews[_courseId];\n    }\n\n    /// @notice Rút tiền từ doanh thu bán khóa học (chỉ Admin)\n    function withdrawFunds() public onlyAdmin {\n        uint balance = address(this).balance;\n        require(balance > 0, \"Khong co so du de rut\");\n        \n        payable(admin).transfer(balance);\n        emit FundsWithdrawn(admin, balance);\n    }\n}\n",
  "sourcePath": "D:\\BlockChain\\contracts\\CoursePlatform.sol",
  "compiler": {
    "name": "solc",
    "version": "0.8.21+commit.d9974bed.Emscripten.clang"
  },
  "schemaVersion": "3.4.16",
  "updatedAt": "2026-05-22T06:12:36.197Z",
  "networkType": "ethereum",
  "devdoc": {
    "details": "Mọi dữ liệu giao dịch và quyền sở hữu được lưu trữ on-chain",
    "kind": "dev",
    "methods": {
      "addReview(uint256,uint8,string)": {
        "params": {
          "_comment": "Bình luận",
          "_courseId": "ID khóa học",
          "_rating": "Số sao (1-5)"
        }
      },
      "checkOwnership(address,uint256)": {
        "params": {
          "_courseId": "ID khóa học cần kiểm tra",
          "_user": "Địa chỉ ví người dùng cần kiểm tra"
        },
        "returns": {
          "_0": "true nếu đã sở hữu, false nếu chưa"
        }
      },
      "createCourse(string,uint256,string,string,string)": {
        "params": {
          "_description": "Mô tả ngắn về khóa học",
          "_imageUrl": "URL hình ảnh thumbnail",
          "_price": "Giá khóa học (đơn vị: Wei)",
          "_title": "Tên khóa học",
          "_videoUrl": "Link video bài giảng YouTube"
        }
      },
      "fetchAllCourses()": {
        "returns": {
          "_0": "Mảng chứa tất cả các struct Course"
        }
      },
      "getCourse(uint256)": {
        "params": {
          "_courseId": "ID khóa học"
        },
        "returns": {
          "_0": "Struct Course chứa thông tin khóa học"
        }
      },
      "getReviews(uint256)": {
        "params": {
          "_courseId": "ID khóa học"
        }
      },
      "purchaseCourse(uint256)": {
        "params": {
          "_courseId": "ID của khóa học muốn mua"
        }
      }
    },
    "stateVariables": {
      "courses": {
        "details": "courses[courseId] => Course"
      },
      "ownedCourses": {
        "details": "ownedCourses[địa_chỉ_ví][courseId] => true/false"
      }
    },
    "title": "CoursePlatform - Hệ thống mua khóa học Online bằng Blockchain",
    "version": 1
  },
  "userdoc": {
    "events": {
      "CourseCreated(uint256,string,uint256,address)": {
        "notice": "Phát ra khi một khóa học mới được tạo"
      },
      "CoursePurchased(uint256,address,uint256)": {
        "notice": "Phát ra khi một người dùng mua khóa học thành công"
      },
      "FundsWithdrawn(address,uint256)": {
        "notice": "Phát ra khi Admin rút tiền thành công"
      },
      "ReviewAdded(uint256,address,uint8)": {
        "notice": "Phát ra khi có đánh giá mới"
      }
    },
    "kind": "user",
    "methods": {
      "addReview(uint256,uint8,string)": {
        "notice": "Đánh giá khóa học"
      },
      "admin()": {
        "notice": "Địa chỉ Admin (người deploy contract)"
      },
      "checkOwnership(address,uint256)": {
        "notice": "Kiểm tra người dùng đã sở hữu khóa học hay chưa"
      },
      "constructor": {
        "notice": "Khởi tạo contract, gán người deploy làm Admin"
      },
      "courseCount()": {
        "notice": "Bộ đếm ID khóa học, tự động tăng"
      },
      "courseReviews(uint256,uint256)": {
        "notice": "Mapping danh sách review của mỗi khóa học"
      },
      "courses(uint256)": {
        "notice": "Mapping lưu trữ danh sách khóa học theo ID"
      },
      "createCourse(string,uint256,string,string,string)": {
        "notice": "Tạo một khóa học mới (chỉ Admin)"
      },
      "fetchAllCourses()": {
        "notice": "Lấy danh sách tất cả khóa học"
      },
      "getCourse(uint256)": {
        "notice": "Lấy thông tin chi tiết một khóa học"
      },
      "getReviews(uint256)": {
        "notice": "Lấy danh sách đánh giá của khóa học"
      },
      "hasReviewed(address,uint256)": {
        "notice": "Mapping kiểm tra user đã đánh giá khóa học chưa"
      },
      "ownedCourses(address,uint256)": {
        "notice": "Mapping kiểm tra quyền sở hữu khóa học của người dùng"
      },
      "purchaseCourse(uint256)": {
        "notice": "Mua một khóa học bằng ETH"
      },
      "toggleCourseStatus(uint256)": {
        "notice": "Thay đổi trạng thái Ẩn/Hiện của khóa học (chỉ Admin)"
      },
      "updateCourse(uint256,string,uint256,string,string,string)": {
        "notice": "Cập nhật thông tin khóa học (chỉ Admin)"
      },
      "withdrawFunds()": {
        "notice": "Rút tiền từ doanh thu bán khóa học (chỉ Admin)"
      }
    },
    "notice": "Contract cho phép Admin tạo khóa học và người dùng mua bằng ETH",
    "version": 1
  }
}